:100000000C9477030C949F030C949F030C949F0310
:100010000C949F030C949F030C949F030C949F03D8
:100020000C949F030C949F030C9457230C94C623A9
:100030000C949F030C949F030C949F030C949F03B8
:100040000C949F030C949F030C949F030C949F03A8
:100050000C949F030C949F030C949F030C94F8251D
:100060000C949F030C949F030C949F030C949F0388
:100070000C949F030C949F030C949F030C949F0378
:100080000C9442260C949F030C949F030C949F03A2
:100090000C949F030C949F030C949F030C949F0358
:1000A0000C949F030C949F030C949F034E4F005994
:1000B0004553004F564552575249544520544849DC
:1000C0005320534156453F0043484F4F534520412D
:1000D00020534C4F54004920414D20444541544841
:1000E00020494E4341524E41544521004252494E0F
:1000F000472027454D204F4E2100444F4E27542086
:1001000048555254204D452E0043414E2049205021
:100110004C41592C2044414444593F00484F5720FA
:10012000544F5547482041524520594F553F0048AC
:10013000454C5000564945572053434F52455300B4
:100140004C4F41442047414D45004E4557204741C3
:100150004D4500574F4C46454E4455494E4F203370
:100160004400484947482053434F524553004E45A9
:100170005720484947482053434F524521004741A3
:100180004D45204F56455200000306090D10131629
:10019000191C1F2225282B2E3134373A3C3F42446C
:1001A000474A4C4F515456585B5D5F6163656769C0
:1001B0006A6C6E6F717274757677797A7A7B7C7DF2
:1001C0007E7E7F7F7F808080804001FB03AD1AFBB5
:1001D00003AD1AFB03AD1A0000B300AF00E80CAC8E
:1001E00000410D0000C800FB03E80CFB03E80CFB1A
:1001F00003E80C0000D5F08D14A1C881CFD9F1AF70
:100200002000464C4F4F523A004745542050535916
:1002100043484544210053434F524500414D4D4F03
:10022000004845414C5448000000150B16E70023D8
:10023000160FE903342207D10A2D260A0000090C03
:100240001C6C0019120F2E02261F0EC8061B150D5E
:1002500000000F12190E011918156603191D153B20
:1002600006191E1400000A092B5A00110F24590107
:10027000121320AF0219181C00001B200360031F7B
:10028000200140071B1F03850A1E2001450E202068
:100290000045121B1F038A151D1C03B6181D1503EC
:1002A000171B1D0A03391C1D0A0300000E1C0988B8
:1002B000010E1D081E030C1B0962040C1C09B2056B
:1002C0000C1C0902070F1B08970810170A070A14CD
:1002D0001308830B140E089B0C1808045B0D0D1CEF
:1002E00009C70E0D1B092610111C0702120D1C0A4E
:1002F0006E130C1C0CBE140E1B0A000007110D77A8
:1003000000070F0DE00008100C600109150B1D021D
:100310000A160AF9021310082904131008590517C0
:10032000140625071C1003E5081B0703A20910107B
:1003300009A20A120F08B00B120E07AC0C1010071E
:10034000AC0D120F06BA0E120D07000009170CCFE4
:10035000000B180BD70109170CA6020C170ABA03D9
:100360000C170ACE040C170BE205111A0C9C07138C
:10037000160D3E0913120D940A1807083C0B0C18B1
:100380000A5C0C0B180A640D0D170A8F0E0B170C64
:100390008C0F0B180C94100D170B454E5445522022
:1003A000594F5552204E414D45001C010901651E13
:1003B000FA00651EEC00651ED600651E00004F4E5B
:1003C000004F464600534F554E443A004841524470
:1003D000004E4F524D414C0045415359004241425D
:1003E0005900534B494C4C3A00464C4F4F523A003F
:1003F000454D50545920534C4F54000054524541E0
:10040000535552453A20202020250053454352455C
:1004100054533A2020202025004B494C4C533A207D
:100420002020202500464C4F4F5220434F4D504C2A
:10043000455445440046494E414C2053434F524594
:100440003A00594F552057494E21005301000040B2
:100450004A414D455348484F574152440053014A81
:1004600001410D4001300D3401D70CC503520D2F51
:10047000011F0D0000620100006E0100007E0100FE
:1004800000080B0002020200000904000001020241
:1004900000000524001001052401010104240206C6
:1004A000052406000107058103100040090401002E
:1004B000020A00000007050202400000070583024F
:1004C0004000000403090412010002EF0201404150
:1004D00023368000010102030141726475696E6F69
:1004E000204C4C430041726475626F790000000635
:1004F000070D2A00120707A80009050DD5000E08F0
:10050000084501090D0BBA01090B0C1D0210080664
:100510009D020D0C0A39030D120A2304150907E088
:10052000041A0A02E405120B08AA06120B080000BE
:10053000160E053401181005B4021215082E040D0C
:100540001009FE04102009FE0609100C8E07101A6F
:10055000082E0907200D0E0A091B0C010B0C0E0AB0
:10056000A90B14200700001E2002C0031507075323
:1005700004140706DF041E20019F081E200200004D
:10058000072000E000072000C001172000A004178A
:1005900020008007172000600A172000400D172058
:1005A00000201017200000130A20000000E00203C2
:1005B0000C5F7DF66A994CAA6A6000C045D10108BB
:1005C000236208100184100002980C3F7EF243BDA4
:1005D0005EB17E877CB776BF76217CBF7EB77E40DA
:1005E00001500144454A295111A10A2E5EBE78BF2F
:1005F0002A2E2A3F3ABF46BF042E769F7CF1470839
:100600003E9F6C1F42DF7C9E3C2E3A3F192E5BBF03
:1006100068B226E1071F7E0F3F9F7D9B6C830FB959
:100620004EE0478360F103220800007E0100007E57
:1006300001000000FF01000001FF0000002A00444B
:10064000006600B400CE00F0005A0118026E0208E5
:1006500003B603F8033204A404BE04DC04CE058010
:1006600006FE068C07BE078C0866090C0AD60AD857
:100670000B0E0C740CB60C980D2E0E600EBE0E00F8
:100680000F520F9010BA1154134614B8140E15DC03
:1006900015F215F8162A185819B2192C1B5E1D747C
:1006A0001FBE1FC4208621782346260428AE28C4F6
:1006B0002B722C002DDA2DA82E6A3038323A3430C5
:1006C0003582365C37C2375438E6382839823938B3
:1006D0003ADE3A883B6A3C4C3DE23D284062429C0F
:1006E00044DA46EC48064B7C4BD64C00A32611243A
:1006F0001FBECFEFDAE0DEBFCDBF11E0A0E0B1E07A
:10070000E6ECF3E702C005900D92A633B107D9F7E6
:1007100029E0A6E3B1E001C01D92AD3FB207E1F7C9
:1007200013E0C7E7D3E004C02197FE010E94B83967
:10073000C637D107C9F70E94D1260C94E1390C9431
:100740000000809161010895ECE1F9E0DC0160E0D6
:1007500070E080E00E9430049D01AF0160E00E94E3
:10076000C2038217930751F4D901FA0160E00E9495
:10077000C70381931197D9F761E0F1CF0E94CD03B0
:10078000862F08950E94C703982F0C94C7030DB4B9
:1007900007FEFDCF8EB51EBC08950DB407FEFDCF3C
:1007A0008EB5599A089523E330E0ECE1F9E0A0E03A
:1007B000B0E0BD0180E00E9430040E941F04BD0132
:1007C0001296A20FB31F8217930799F38F5F9F4F63
:1007D00021F4AF5FBF40DB0178F00E946D0B40E079
:1007E000509180056091810580E20E942404599A0D
:1007F0000E94D007A0E0B0E07CEF0E946D0B4A2F72
:10080000509180055B0F60918105611D82E00E941F
:100810002404832F71FD822F70FD81910E943C047E
:10082000759518F42150304019F01196AA2389F7D4
:10083000599A0E94D00721153105F9F608950E94B2
:10084000C703982F0C94CD0359980E943C04862F1F
:100850000E943C04852F0E943C04842F0C943C048D
:10086000462F50918005570F60918105681F83E0E6
:100870000E9424041EBC08958EBD00008EB50DB4E8
:1008800007FEFCCF089580914F092AE08202C00143
:100890001124FC01E45EF64F20914B072083209148
:1008A000D20721832091BB09228320915A072383F9
:1008B0002091580724838E5D964F40914F075091A9
:1008C00050076091510770915207DC014D935D9381
:1008D0006D937C9313978091530785830C94D30376
:1008E000CF92DF92EF92FF920F931F93CF93DF93FC
:1008F000382FA0E5B9E0F0E0E0E08C91381371C04A
:100900002DE02E9FC0012F9F900D1124805B964FEC
:100910004BC02196C830D10509F085C090E080E039
:100920005DE0FC01EA0FFB1FE770FF275E9FE0011F
:100930005F9FD00D1124C45AD64F788170FD8FC0AF
:1009400001968830910569F790E080E05DE0FC0158
:10095000EA0FFB1FE770FF275E9FE0015F9FD00D4E
:100960001124C85AD64F0990D881C02DCD2B09F437
:1009700076C001968830910551F790E080E014C070
:10098000EA5DFC4F24E630E0C7C02091BB0921306E
:10099000C9F098F02230D9F02330F1F0D601119649
:1009A000A770BB27A0937F05DF91CF911F910F9177
:1009B000FF90EF90DF90CF900895EA5DFC4F22E525
:1009C00033E0AAC0EA5DFC4F26EB33E0A5C0EA5D48
:1009D000FC4F2AE134E0A0C0EA5DFC4F20EB34E09C
:1009E0009BC031961D96E830F10509F086CFA091A5
:1009F0007F0590E080E0B0E05DE0FC01EA0FFB1FC6
:100A0000E770FF275E9FE0015F9FD00D1124CF5A52
:100A1000D64F7881772319F101968830910569F7CF
:100A2000D0E0C0E05DE0FE01EA0FFB1F7F0187E040
:100A3000E822FF245E9DC0015F9D900D11248C0172
:100A4000045A164FF801708170FF63CF885A964F91
:100A5000FC0180819181892B09F05BCFEE2DCE2E98
:100A60000E2E000CDD085DE0E502C0011124805B64
:100A7000964F5C9DE0015D9DD00D1124FE01EE5C62
:100A8000F94F8F01025E1C4FD8013C930F5F1F4F3F
:100A9000D8016C930B5F1F4FD8011C927F01B0EE01
:100AA000EB1ABCEFFB0A30E2439F80011124005F88
:100AB0001F4FD7010D931C937F01BEEDEB1ABCEFC6
:100AC000FB0A30E2239F80011124005F1F4FD701F2
:100AD0000D931C938F01085D1C4FD8014C93AF01FF
:100AE000475D5C4FDA012C93C45AD64F28812E7F84
:100AF0002883EF01CB5DDC4F21E02883633009F4CC
:100B00003FCF643009F441CFEA5DFC4F29E130E08A
:100B1000623011F421E030E0318320833FCF209117
:100B200017093091180980E0E82FEE0FEF5FEE0F04
:100B3000FF0BE20FF31F45915491452B11F08F5F8E
:100B4000F3CF089581509FEF2FEF843048F490E069
:100B5000FC01E65EFE4F20818A5E9E4FFC01908183
:100B6000EFE7F1E085E0EF37F80741F0808182237D
:100B700080838181892381833296F4CF0895EF9217
:100B8000FF920F931F93CF93DF93880F990BFC0174
:100B9000E555FA4FEF012196E49003E0060F81E05E
:100BA00095E0F92EF40E70E1342F932F51E091FD72
:100BB00054E090FD550F92FD5295987F799FD0019A
:100BC0001124A60FA158BE4F9C9111E0F82FFE21D1
:100BD00009F010E01217B9F0952B9C93880F31F4AF
:100BE000CE010196FE01E490EC0181E03F5FF3123B
:100BF000DCCF6F5F0613D8CFDF91CF911F910F919C
:100C0000FF90EF90089550959523E7CFEF92FF92D4
:100C10000F93CF93DF93EA017B01E20EF31E20E1F5
:100C2000F0E0E0E0EC17FD07DCF4962F3E2F380FE4
:100C300051E091FD54E090FD550F92FD5295987F43
:100C4000299FD0011124A30FA158BE4F9C910023CE
:100C500021F0952B9C933196E5CF50959523FACFB3
:100C60006F5F7F4F6E157F05D9F6DF91CF910F91A2
:100C7000FF90EF900895FC0180917D01882311F190
:100C80003FB7F89482E08093E9002091F200822F30
:100C900090E01816190614F481E090E0882339F0EA
:100CA000289844E640937C014091F1004083222340
:100CB00039F02091F200211103C02BE62093E800C7
:100CC0003FBF08958FEF9FEF08952FB7F89483E00B
:100CD0008093E9009091E800892F807295FF04C00D
:100CE0009091F20080E4891B2FBF089580917401D8
:100CF00081110DC082E08093700184E080937101C6
:100D0000109273011092720181E08093740180E768
:100D100091E00895CF93DF931F92CDB7DEB769833B
:100D2000DC01ED91FC910280F381E02D41E050E087
:100D3000BE016F5F7F4F09950F90DF91CF910895AE
:100D400083E08093E9008091F200882319F08AE320
:100D50008093E80008950E94650690E00895CF937F
:100D6000DF931F92CDB7DEB7FC018485958597FD93
:100D700008C02FEF3FEF358724870F90DF91CF9189
:100D80000895CE0101960E943B06019719F48981CE
:100D900090E0F3CF8FEF9FEFF0CF0F931F93CF93A0
:100DA000DF931F92CDB7DEB78C01FC01848595855A
:100DB00097FF0BC0CE0101960E943B06019771F48C
:100DC000898190E0F80195878487F801848595856D
:100DD0000F90DF91CF911F910F9108958FEF9FEFAB
:100DE000F1CFFC018485958597FD0BC09FB7F894E2
:100DF00082E08093E9008091F2009FBF90E001962D
:100E000008959FB7F89482E08093E9008091F20002
:100E10009FBF90E0089540916A0150916B0120912D
:100E200068013091690142175307B4F49091E800CA
:100E30009570E1F39091E80092FD19C08093F10064
:100E400080916A0190916B0101968F739927892B8C
:100E500019F48EEF8093E80080916A0190916B0104
:100E6000019690936B0180936A0181E0089580E080
:100E70000895EF92FF920F931F93CF93DF93F82E75
:100E8000192FE62E042F81E0860F880F0E940B0792
:100E900083E00E940B07CF2DD12FEC0EFD2EF11C0D
:100EA000CE15DF05B9F007FF13C0FE0184910E9443
:100EB0000B07182F80E00E940B07812321968111D8
:100EC000EFCFDF91CF911F910F91FF90EF90089599
:100ED0008881EDCF81E0F5CFDF92EF92FF920F9303
:100EE0001F93CF93DF93D82E8A01EB017B01E40E91
:100EF000F51ECE15DF0559F0D7FE12C0FE01849114
:100F00000E940B0721968111F4CF0FEF1FEFC8014C
:100F1000DF91CF911F910F91FF90EF90DF90089597
:100F20008881EECF0F931F93CF93DF931F92CDB79E
:100F3000DEB782E0898342E450E061E874E080E853
:100F40000E946C070E947606DC0112960D911C919E
:100F50000115110589F0D801ED91FC910280F38112
:100F6000E02DBE016F5F7F4FC801099597FD04C05A
:100F7000F80100851185ECCF89810F90DF91CF9129
:100F80001F910F910895615030F02091F100FC0104
:100F900020830196F8CF289884E680937C010895F9
:100FA000599885E00E943C0480E00E943C0480FD4A
:100FB000FBCF599A0895FC016150704021F00E94C6
:100FC000C7038193F9CF0E94CD0380830895462FF4
:100FD00050915701570F60915801681F83E00E949C
:100FE00024041EBC08952F923F924F925F926F92FD
:100FF0007F928F929F92AF92BF92CF92DF92EF92A9
:10100000FF920F931F93CF93DF93CDB7DEB7629715
:101010000FB6F894DEBF0FBECDBF9F838E83598776
:101020004887A901202EEB823C2C81E02E813F8154
:10103000A885B9852A173B0709F080E080937E01D7
:10104000E0913B06F0913C06A0903306B090340648
:101050000E811F810A191B09E0903D06F0903E06A3
:1010600080903506909036066B01C818D9089F010C
:10107000D8010E94BE392B013C01A7E0759467940A
:1010800057944794AA95D1F79701D6010E94BE398B
:10109000B7E09595879577956795BA95D1F79201C1
:1010A000261B370B3D832C839801D7010E94BE3944
:1010B0002B013C0117E075946794579447941A9557
:1010C000D1F79F01D6010E94BE3907E0959587951B
:1010D000779567950A95D1F7460E571EC884D9842F
:1010E000CA18DB0848195909D6010E94BE394B01BC
:1010F0005C0187E0B594A794979487948A95D1F77B
:101100009701DA010E94BE39A7E0959587957795FA
:101110006795AA95D1F7861A970AD6010E94BE391B
:101120006B017C01B7E0F594E794D794C794BA9526
:10113000D1F79F01DA010E94BE3917E09595879596
:10114000779567951A95D1F7C60ED71E35E08316A9
:1011500091040CF036C14C815D81453051050CF491
:101160000BC225E030E028193909A2014C195D09AC
:10117000249FC001259F900D349F900D11246C81F8
:101180007D81681979090E94A439C60ED71EF5E041
:101190008F2E912C2FE630E0D6010E94C6399401A3
:1011A000092C000C440B550B0E943A397901F0E4EC
:1011B000EF0EF11C2FE630E0D2010E94C639AC815F
:1011C000BD819D01BB0F440B550B0E943A39F901BB
:1011D000FF96FA83E9839701F7FE02C030E020E032
:1011E00089819A818038910514F08FE790E0821709
:1011F00093070CF4C1C120EE3DE0C901B4010E9487
:10120000A4395B01C9016C817D810E94A4392981C7
:101210003A812E193F093D832C8329015594479427
:10122000A616B7060CF0EFC0AB014A195B095B8745
:101230004A8781E090E09D878C87FB81F3150CF055
:10124000ECC0C32CCF1A21E02A8B622C712C762C97
:101250006624770C770C072C000C88084EE8641A7B
:1012600043E9740A4CEF840A120199249A948C2D54
:10127000CC0C990B998B888BA981BA81AE15BF05CF
:101280000CF47AC1B0E8EB16F10408F04EC1F70196
:10129000EE5CF94F81898A151B040CF046C181115F
:1012A00009C08091440790914507019690934507A6
:1012B000809344072FEFA216B10411F00CF0B2C0D6
:1012C000A18A4B81842F440F990B98161906B9F007
:1012D00045E0880F991F4A95E1F7482D9301280FA3
:1012E000391F411D97FD4A95842FB9010E94E707D8
:1012F00060E270E08CEB99E00E94DB079B80850147
:101300001595079580E290E0801B910B680130E213
:10131000C30ED11C41E4C416D1041CF020E4C22E3B
:10132000D12CA80160E022E097FF22C05FE1589F26
:101330009001599F300D1124200F311F88279927C4
:10134000821B930BB5010E94A43981E0860F90E0C7
:101350008A9DA0018B9D500D9A9D500D1124420F26
:10136000531F6E5F8454964FDC012C9190E080E017
:10137000F701E170FF27FF87EE878C159D050CF0C4
:10138000BDC0AE81BF81E885F985AE17BF0709F002
:1013900078C0213009F449C008F47BC0223009F438
:1013A00080C0233009F454C04F51510957FFA4C0E5
:1013B000E62FF0E0E454F64F20814A0D5B1D6F5F8D
:1013C000F5CF8C819D81853091050CF0E3CE25E031
:1013D00030E0281B390BA60144195509249FC00190
:1013E000259F900D349F900D1124B401AC81BD81D7
:1013F0006A1B7B0B0E94A439460E571EE5E0F0E005
:10140000FD83EC83C7CED501A61BB70BBB87AA878C
:10141000EFEFFFEFFD87EC8710CFCB80C3183FEFD6
:101420003A8B13CF3FEF318B4CCFF701E82B782F5E
:10143000E0FF54C0F0E131E071FD34E070FD330FA6
:1014400072FD3295787FF79FD0011124AE0D14C044
:10145000EE85FF85E823F923782FEF2B19F1E0E1E2
:1014600031E071FD34E070FD330F72FD3295787F0D
:10147000E79FD0011124AE0DA158BE4F7C91372BB0
:1014800023C0213061F010F1223059F0233009F0EF
:101490008BCFF701E827782FE0FF04C0E0CF782F4B
:1014A000DECF782FF0E131E071FD34E070FD330FD5
:1014B00072FD3295787FF79FD0011124AE0DA158AF
:1014C000BE4F30957C9137233C936ECFEE85FF85E0
:1014D000E823F923782FEF2B09F4ACCFE0E131E0DA
:1014E00071FD34E070FD330F72FD3295787FE79F18
:1014F000D0011124AE0DE3CF01963FCF0F3111057E
:10150000A4F49C2D20E181E091FD84E090FD880F02
:1015100092FD8295987F299FD0011124AE0DA1588C
:10152000BE4F80959C9189238C934A855B85441A94
:10153000550A88899989281A390AAC81BD811A16F9
:101540001B06B4F457FE09C0EC85FD85AE0EBF1E28
:101550002C813D81420E531EF5CF37FE09C03B81E1
:101560004A89340F3B838C819D81280E391EF5CF2B
:101570009FEFE91AF90A80CE62960FB6F894DEBFA3
:101580000FBECDBFDF91CF911F910F91FF90EF90D4
:10159000DF90CF90BF90AF909F908F907F906F9093
:1015A0005F904F903F902F9008955F926F927F923F
:1015B0008F929F92AF92BF92CF92DF92EF92FF9263
:1015C0000F931F93CF93DF93942E25E0829FC0014A
:1015D0001124FC01E258FA4FC590D490E12CEEE8BA
:1015E000CE1AEBE2DE0AECEFEE0AFC01E058FA4F0D
:1015F0000491FC01EF57FA4FF4908E579A4FFC017B
:101600008491680F711D562EC62F10E0AF2CB12C9F
:10161000D0E16F2C712C812C8C2F8519082E000C99
:10162000990B801791070CF043C08E2DB6010E94D4
:10163000E707B5018CEB99E00E94DB079FEF9F0D58
:10164000ECEBF9E097FD2FC08191813021F08230E1
:10165000B1F09150F7CF892F890D21E081FD24E071
:1016600080FD220F82FD2295887FD89FD001112412
:10167000AC0FA158BE4F8C91822B8C93EACF892F4F
:10168000890D21E081FD24E080FD220F82FD22955D
:10169000887FD89FD0011124AC0FA158BE4F209550
:1016A0008C918223EACFC60CD71CE81CCF5FB4CF45
:1016B000DF91CF911F910F91FF90EF90DF90CF902E
:1016C000BF90AF909F908F907F906F905F900895A4
:1016D00059980E943C04599A089586E00C94680B2E
:1016E000FC010E940B0C319728F068517C4F8F4F02
:1016F0009F4FF9CFAB01FC010E940B0C64177507DB
:101700008E079F07C8F3089585E090E00C94700B56
:101710008F929F92AF92BF92CF92DF92EF92FF9201
:101720000F931F93CF93DF936C017B018A0180910C
:101730000E01882309F45AC080917D01882309F4A1
:1017400055C080916F0180FF05C08091E0008260EC
:101750008093E000E801B12C8AEFA82E93E0892E57
:101760002AE3922E209711F4BB20C9F10E9465064E
:10177000811108C0AA94AA20C9F181E090E00E94DA
:10178000700BF0CF8C171D0611F00CF08C2F9FB74B
:10179000F8948092E9002091E80025FD02C09FBFE7
:1017A000E1CF282F30E0C21BD30BF701815020F08E
:1017B00041914093F100FACFE20EF31EBB2021F0DD
:1017C0009092E800B12CEBCF8091E80085FDE7CF47
:1017D0009092E800BB24B394209709F3F3CF5D986F
:1017E00084E680936E01101611063CF081E090E0D3
:1017F000F6019383828310E000E0C801DF91CF916E
:101800001F910F91FF90EF90DF90CF90BF90AF901E
:101810009F908F900895A3E5B1E02FB7F8947D9144
:101820008D919C9166B52FBFA89B05C06F3F18F4A2
:101830007F5F8F4F9F4F22E0660F771F881F991F92
:101840002A95D1F708958FB18095807F669B886037
:101850001C9B84600895109261013E983F98089502
:101860003E9A3F9A81E08093610108954F925F9282
:101870006F927F928F929F92AF92BF92EF920F934F
:10188000CF93DF934A015B01C22FD0E08AE0482E5C
:10189000512C612C712CC501B401A30192010E944D
:1018A0003A39862F2E2D402F6C2F181419041A0444
:1018B0001B0414F0D11113C0805F0E94BF05C450F7
:1018C000C501B401A30192010E943A3949015A01AC
:1018D00081149104A104B10421F0DF5FDCCF80E02A
:1018E000ECCFDF91CF910F91EF90BF90AF909F9091
:1018F0008F907F906F905F904F900895EF92FF923E
:101900000F931F93CF93DF93D62F142FE22EC0E0B7
:101910008AE0F82E1D1614F0C1111BC08D2F6F2DFB
:101920000E949639202F4E2D612F80E1890F0E9451
:10193000BF0514508D2F6F2D0E949639D82FCF5F81
:10194000C33041F7DF91CF911F910F91FF90EF903E
:101950000895202F4E2D612F80E0E9CFDF92EF9286
:10196000FF920F931F93CF93DF937B01D42E122FFF
:10197000CD2D01C0CC5FF701D491FFEFEF1AFF0A24
:1019800080EE8D0F803428F4202F412F6C2F0E9481
:10199000BF05DA3011F41A5FEBCFD111EBCFDF9135
:1019A000CF911F910F91FF90EF90DF90089585E701
:1019B00094E09093180980931709109219091092D6
:1019C0001B0981E080931A098CEF8093FC0908952C
:1019D0008091170990911809855E9140F1F4E0918A
:1019E0001909E0934F098AE0E802F0011124E45E4E
:1019F000F64F8081882389F089ED91E09093180952
:101A0000809317091092190910921B0981E08093A5
:101A10001A098CEF8093FC0908958AEA93E0909369
:101A200018098093170910921B0981E080931A0905
:101A30008CEF8093FC0982E08093190908958BE470
:101A400094E0909318098093170910921909109245
:101A50001B0981E080931A098CEF8093FC0908959B
:101A600089EC91E090931809809317091092190955
:101A700010921B0981E080931A098CEF8093FC0976
:101A8000089585EE91E090931809809317091092BC
:101A9000190910921B0981E080931A098CEF809339
:101AA000FC090895EEE8F5E09081892F8E7F90FF84
:101AB000816080830895DC01EC916E17ACF1119682
:101AC0002C9142178CF10E2E000CFF0B3F96A62F87
:101AD000062E000CBB0BEA17FB0734F1022E000C9C
:101AE000330B215F3F4FE42F042E000CFF0B2E170A
:101AF0003F07D4F04F7847FF03C04150406F4F5F1E
:101B0000B0E14B02F00111246F7867FF03C0615010
:101B1000606F6F5FE80FF91FE60FF11D67FDFA9523
:101B2000E858FF4F808108958FEF0895462F682F62
:101B30008EE597E00E945B0D99EE980F81E098305A
:101B400008F080E008950E945B0D9FEF980F81E000
:101B5000963108F080E00895FC0130E020E05281E9
:101B6000552389F0538156130EC0548154130BC072
:101B700066E0629FA001639F500D11244E5F5F4F8E
:101B8000840F951F08952F5F3F4F36962031310502
:101B900031F790E080E008952F923F924F925F924C
:101BA0006F927F928F929F92AF92BF92CF92DF926D
:101BB000EF92FF920F931F93CF93DF9300D000D04B
:101BC00000D0CDB7DEB75C017B016A013901280185
:101BD0009B0115E0359527951A95E1F73C832B83FA
:101BE000130105E0359427940A95E1F72215330592
:101BF00009F48BC0221533050CF0D7C0C90101963A
:101C0000A5E0880F991FAA95E1F7FC01E61BF70BE9
:101C1000FA83E98388248394912CB2016C197D099D
:101C2000072E000C880B990BE5E0660F771F881FC5
:101C3000991FEA95D1F793012E193F0937FF03C089
:101C4000319521953109032E000C440B550B0E9450
:101C50003A390FEF1FE7211580E838074105510594
:101C600044F48901213030484F4F5F4F14F401E0B4
:101C700010E89801A981BA810E94BE3920E230E0C3
:101C800040E050E00E943A39F601E20FF31FFA8378
:101C9000E9832B813C81280D391D3E832D83280C3F
:101CA000391C89819A8175E0959587957A95E1F738
:101CB0009C838B83E981FA81E00FF11FFA83E9832A
:101CC0004B816D81C5010E945B0D8823A9F09FEFB8
:101CD000980F963108F4D6C08751883068F44B814C
:101CE0006D81C5010E94AC0D009709F4CBC0FC01C9
:101CF0008381882309F4C6C02D813E81280D391DBA
:101D00003E832D832216330661F6C60155E0959574
:101D100087955A95E1F79A838983420165E0959406
:101D200087946A95E1F78815990509F491C088159B
:101D300099050CF043C01C019FEF291A390A45E0B0
:101D4000220C331C4A95E1F72C183D0801E010E005
:101D5000B3016E197F09072E000C880B990B35E033
:101D6000660F771F881F991F3A95D1F792012C199A
:101D70003D0937FF03C0319521953109032E000C31
:101D8000440B550B0E943A392115F0E83F074105F5
:101D90005105DCF46901213030484F4F5F4FCCF4DE
:101DA000CC24C39490E8D92E14C09B012F71332703
:101DB0003A83298388248A94982C2FCF1601EFE147
:101DC0002E2233240FEF1FEFC3CFCC24CA942FE76A
:101DD000D22E9601D1010E94BE3920E230E040E0CF
:101DE00050E00E943A39E20EF31EE981FA81E00FD9
:101DF000F11FFA83E9833801680C791C470185E0FB
:101E0000959487948A95E1F7EC0CFD1C4981682D27
:101E1000C5010E945B0D882391F09FEF980F9631CA
:101E200088F18751883058F44981682DC5010E9496
:101E3000AC0D009739F1FC018381882319F12981C8
:101E40003A81200F311F3A83298362167306B1F657
:101E500081E026960FB6F894DEBF0FBECDBFDF91AE
:101E6000CF911F910F91FF90EF90DF90CF90BF9097
:101E7000AF909F908F907F906F905F904F903F902A
:101E80002F90089580E0E5CFFF920F931F93CF939B
:101E9000DF938C01D62FF42E0E945B0DC82F8FEF9D
:101EA0008C0F863100F186EC8C0F8B30E0F04F2DDB
:101EB0006D2FC8010E94AC0DFC01892B49F0808177
:101EC00091E0893049F08381803130F090E004C0A6
:101ED000C75191E0C830D0F7892FDF91CF911F9182
:101EE0000F91FF90089591E0F7CFFC018081681772
:101EF000CCF021814217B4F0082E000C990B0F96FC
:101F0000062E000C770B8617970764F0022E000C44
:101F1000330B215F3F4F042E000C550B81E024173B
:101F200035070CF480E00895CF93DF93FC01A5857D
:101F3000B68585819681681B790BC785D089878195
:101F40009085481B590BA69FC001A79F900DB69F77
:101F5000900D1124C49F9001C59F300DD49F300D6A
:101F60001124821B930B80389F4FC4F06C9F90010B
:101F70006D9F300D7C9F300D1124A49FC001A59F43
:101F8000900DB49F900D1124280F391F81E0203847
:101F90003F4F0CF080E0DF91CF91089581E0FBCFBF
:101FA000CF92DF92EF92FF920F931F93CF93DF9325
:101FB000D82EC62ED42F50ECE52E57E0F52EF70183
:101FC000CFEF80E09081911101C0C82F33968F5FD1
:101FD0008630C1F7CF3F09F043C000EC17E0C0E006
:101FE000F801428161818EE597E00E94750F8111B1
:101FF00005C0F80180818853823090F50D5F1F4F36
:10200000CF5FC63069F7F8E3DF1228C000EC17E0B5
:10201000C0E0F8014281042E000C550B6181062EB0
:10202000000C770B82E396E00E94940F882329F03E
:10203000F80180818853823098F40D5F1F4FCF5F85
:10204000C63039F7C0E0F70180818853823040F410
:10205000F3E0EF0EF11CCF5FC630A9F780E015C0AA
:102060008C2FCC0F990B9C01220F331F820F931FD3
:10207000825A984FFC01EE59FF4FD0823196C082B0
:102080008C599F4FFC01D08381E0DF91CF911F914C
:102090000F91FF90EF90DF90CF9008952F923F9295
:1020A0004F925F926F927F928F92AF92BF92CF9238
:1020B000DF92EF92FF920F931F93CF93DF93EC0188
:1020C0006B013901842EA70135E0559547953A9566
:1020D000E1F7B801E5E075956795EA95E1F70E94AB
:1020E000940F8111C3C049855A8589819A81081B43
:1020F000190BAB84BC848B819C81E81AF90A9A0184
:10210000D8010E94BE391B012C0187E055944794E9
:10211000379427948A95D1F79501D7010E94BE394B
:1021200027E095958795779567952A95D1F7F101E1
:10213000E61BF70BE031F1050CF498C09801D501CE
:102140000E94BE391B012C01A7E055944794379497
:102150002794AA95D1F79A01D7010E94BE39B7E01A
:102160009595879577956795BA95D1F7260E371E81
:102170002FE6229DC001239D900D1124BF010E94D6
:10218000A4399B01CB0181589F4F8F3F910508F0E7
:102190006DC080EE9DE0BF010E94A439790140E44A
:1021A000E40EF11CF601329644913296E491CB0193
:1021B00095958795D701A81BB90BE69F9001E79FDE
:1021C000300D1124E5E035952795EA95E1F72A0FC2
:1021D0003B1F203831050CF049C0469FC001479F86
:1021E000900D112445E0959587954A95E1F7820F6A
:1021F000931F97FD3BC0FE01EC56FF4F90E080E03F
:10220000208131814281232B242B09F041C0982F5A
:10221000E92FF0E09F0103E0220F331F0A95E1F759
:10222000AE01420F531F8A0109561F4FD801EC928D
:10223000739683E0EE0FFF1F8A95E1F7EC0FFD1F09
:102240006083FA01EE56FF4FD182C08232966082DF
:1022500071828282DE01AF56BF4F8C918F3F09F0B1
:102260003FC09C9347565F4FFA018083DF91CF9127
:102270001F910F91FF90EF90DF90CF90BF90AF90A4
:102280008F907F906F905F904F903F902F90089528
:10229000019638968031910509F0B2CFAE014F56C4
:1022A0005F4FDA019C91292F30E0F901739683E0AA
:1022B000EE0FFF1F8A95E1F7EC0FFD1F8081861757
:1022C0001706A4F6F90123E0EE0FFF1F2A95E1F7A8
:1022D000EC0FFD1FE756FF4F8081FA01808398CFF6
:1022E000E82FF0E0739613E0EE0FFF1F1A95E1F769
:1022F000EC0FFD1FE081E617170639F034F0475662
:102300005F4FFA0180839C93B1CFF8E08F9FD0019B
:102310001124AC0FBD1FA756BF4F8C918F3F39F4CE
:102320009C93C20FD31FC756DF4F88839FCFE82FE0
:10233000F0E0739643E0EE0FFF1F4A95E1F7EC0FD4
:10234000FD1F40814617170601F3FCF2C20FD31F91
:10235000C756DF4F8883D7CF5F926F927F928F925D
:102360009F92AF92BF92CF92DF92EF92FF920F9324
:102370001F93CF93DF93D82E562EA62E660FBB0841
:10238000C82F880FDD0BA501BE0182E396E00E94F5
:10239000940F811145C0E52DEF78E7FF03C0E150B0
:1023A000E06FEF5F20E1E202F00111248D2D8F78C4
:1023B00087FF03C08150806F8F5FE25AF84FE80FAC
:1023C000F11D87FDFA95E858FF4FC080CC2041F100
:1023D00065E0CC0FDD1F6A95E1F775E0AA0CBB1C28
:1023E0007A95E1F78BEB8C0D853050F5750130E176
:1023F000E30EF11C8E01005F1F4F2C2D2554330B73
:10240000C90125E0289FB001299F700D11246B5947
:102410007A4F2AEE31E543E082E396E00E944E10C7
:10242000DF91CF911F910F91FF90EF90DF90CF90B0
:10243000BF90AF909F908F907F906F905F90089526
:1024400086EC8C0D8B30B8F4750130E1E30EF11C95
:102450008E01005F1F4F2C2D2A53330BC90125E03D
:10246000289FB001299F700D1124625D7A4F29E4E5
:102470003EE543E0D1CF83ED8C0D8D30D0F42C2D93
:102480002D52330BC90125E0289FB001299F700D03
:10249000112463517B4F750130E1E30EF11C8E0175
:1024A000005F1F4F24E835EF42E082E396E00E9490
:1024B0004E1089EE8C0D883008F048C0452D6D2DEA
:1024C0008EE597E00E94AC0D892B09F0A9CFE7EECD
:1024D000EC0D06E1E63020F4F0E0E25EFE4F008114
:1024E000C0FC1BC0CE014096B501605E7F4F2091BD
:1024F0003306309134062817390744F45FE1C52EBE
:10250000E12C9501AC010E94F3078ACFC12C4FE169
:10251000E42E9B01AC01B501F6CFB501605F7F4FA2
:10252000CE018096209135063091360662177307EA
:1025300034F43FE1C32EE12C9B01AE01E4CFC12C6A
:102540002FE1E22E9B01AC01CE01DDCF1FEF1C0D70
:10255000163108F065CF809135069091360660906F
:102560003306709034068A159B050CF095C00FEF6A
:10257000050D602F8D2D0E94960DC615D7050CF008
:1025800047C04E0190E2890E911C882321F18FE112
:10259000C82EE12C07E19501A401B501CE010E94EE
:1025A000F3078091330690913406881699060CF053
:1025B00037CFD394652D8D2D0E94960D8823C1F0C1
:1025C0009501205E3F4FDFE1CD2EE12C07E1A40114
:1025D000B501C40198CF402F6D2D8EE597E00E9484
:1025E000A30D8111DECF0FE1C02EE12C012FD3CF3F
:1025F000452D6D2D8EE597E00E94A30D811110CF22
:102600009501205E3F4FCFE1CC2EE12C012FDFCF93
:10261000882329F1BFE1CB2EE12C07E19501AE0122
:10262000405E5F4FB501CE010E94F30780913306F3
:10263000909134068C179D070CF0F2CEDA94652D3C
:102640008D2D0E94960D8823B9F0B501605E7F4FF5
:10265000FFE1CF2EE12C07E19501AE0175CF402FB0
:102660006D2D8EE597E00E94A30D8111DFCFAFE1C4
:10267000CA2EE12C012FD2CF452D6D2D8EE597E08E
:102680000E94A30D8111CCCEB501605E7F4FEFE1BA
:10269000CE2EE12C012FE0CF450120E2820E911CCD
:1026A000C615D7050CF04AC03E0130E2630E711C1E
:1026B0008816990694F401E0050D602F8D2D0E9477
:1026C000960D882371F17FE1C72EE12C07E194017B
:1026D000AE01B401C3010E94F307809133069091CB
:1026E0003406681679060CF09BCED394652D8D2D9B
:1026F0000E94960D5FE1C52EE12C07E181110CC00F
:10270000452D6D2D8EE597E00E94A30D811188CE99
:102710004FE1C42EE12C012F9401A301B501C301A7
:10272000F2CE402F6D2D8EE597E00E94A30D811112
:10273000D4CF6FE1C62EE12C012FC9CF88169906A0
:102740009CF401E0050D602F8D2D0E94960D8823CD
:1027500071F13FE1C32EE12C07E19401AE01B40118
:10276000CE0180960E94F307809133069091340643
:102770008C179D070CF054CEDA94652D8D2D0E9498
:10278000960D9FE1C92EE12C07E181110CC0452D6A
:102790006D2D8EE597E00E94A30D811141CE8FE152
:1027A000C82EE12C012F9501AE01B401CDCE402FF2
:1027B0006D2D8EE597E00E94A30D8111D5CF2FE1FD
:1027C000C22EE12C012FC9CF9F92AF92BF92CF9220
:1027D000DF92EF92FF920F931F93CF93DF936C01E1
:1027E000DC01F0E0E0E01FEF12963C9112971F3FF2
:1027F00011F5332309F45FC013963C9113973213FC
:102800001CC014963C911497301317C026E02E9FDD
:10281000E0012F9FD00D112422968C0F9D1FDF9178
:10282000CF911F910F91FF90EF90DF90CF90BF90CD
:10283000AF909F9008953111DFCF31961696E03119
:10284000F10591F6B22EA42E962EEC011F3FA9F5AC
:102850007C0110E0F7018281893059F04481638165
:10286000CE010E94750F882341F1F70185818823ED
:1028700021F1F6E0EF0EF11C1F5F103159F710E067
:10288000F6018281893071F04481042E000C550BD1
:102890006381062E000C770B82E396E00E94940F72
:1028A00081110BC0F6E0CF0ED11C1F5F103141F734
:1028B00090E080E0B4CF1E2FC0CF812F012E000CFE
:1028C000990B26E0289FF001299FF00D1124EC0FB1
:1028D000FD1FB382048315820196289FD001299F92
:1028E000B00D1124AC0FBD1F1C929282A782CE01A5
:1028F0001202800D911D1124029691CFDF92EF926A
:10290000FF920F931F93CF93DF937C01C62FD42F99
:10291000122FD02E8091BA09823099F56A3469F469
:102920004FEF4D0F69E0C7010E94E413F701EA5829
:10293000FF4F80818F5F808324C08FEC860FF7016B
:10294000EB58FF4F8530A8F381EE860F8A30C8F42C
:10295000633299F040F4603281F0613251F0F70156
:10296000E958FF4FE6CF663241F0673211F064322A
:10297000B1F78091BB09833020F08091BB09823090
:1029800070F783ED8C0F8D3028F5ED2FE695E695E9
:10299000E6952D2F30E048E0E49F201931091124FD
:1029A00081E090E0AC0102C0440F551F2A95E2F788
:1029B000EE0DFF2DF11DE858FE4F8081842309F0B4
:1029C0004EC08C2FDF91CF911F910F91FF90EF9010
:1029D000DF90089581EE8C0F8A3008F05EC0809100
:1029E000BA09823009F43BC02D2F30E0ED2FE69577
:1029F000E695E69558E0E59F20193109112481E01C
:102A000090E0AC0102C0440F551F2A95E2F7EE0D8D
:102A1000FF2DF11DE856FE4F8081842301F5C05241
:102A2000C930B8F4EC2FF0E0E85EFA4E0C94B839F7
:102A300025152115391535153115451541153D1546
:102A400049158091BB09833050F08091BB098230D9
:102A500030F02D2D412F61E08D2F0E947004C0E0D9
:102A6000B0CF8091BB098330D0F38091BB09823015
:102A7000B0F32D2D412F63E0EFCF8091BB09833060
:102A800070F38091BB09823050F32D2D412F62E00D
:102A9000E3CF2D2D412F64E0DFCFCA3409F091CF71
:102AA000DECF8F929F92AF92BF92CF92DF92EF9242
:102AB000FF920F93CF93DF93C82F60915E07680F4B
:102AC00080E46802B001112480915F07680F711DD6
:102AD00087FD7A95705F660F771F072E000C880BB5
:102AE000990BC090D2070C2C000CDD08EE08FF08F3
:102AF0002EE0CC0CDD1CEE1CFF1C2A95D1F76C0DD2
:102B00007D1D8E1D9F1D0E94E70760E270E08CEB2B
:102B100099E00E94DB0720915E078C2F0C2E000CA1
:102B2000990B820F911D27FD9A9560E170E00E943C
:102B3000A4395C013CEBC32E39E0D32EF12CE12CFF
:102B400040E1842E912CD0915F070D2F0E0D209126
:102B50005E072C0FF601418160818EE597E00E94AF
:102B60007E14282FC7018D0F911DD7FD9A95B401B2
:102B70000E94A439FC0184E0EE0FFF1F8A95E1F763
:102B8000EA0DFB1DEA52F84F2083FFEFEF1AFF0A10
:102B900082E0C80ED11CE0E1EE16F104A1F6DF914F
:102BA000CF910F91FF90EF90DF90CF90BF90AF90BB
:102BB0009F908F9008957F928F929F92AF92BF9235
:102BC000CF92DF92EF92FF920F931F93CF93DF93F9
:102BD000EC01162F6981610F80E46802B0011124B5
:102BE0008881680F711D87FD7A95660F771F072E04
:102BF000000C880B990BFE01EC58FF4FC0800C2C89
:102C0000000CDD08EE08FF082EE0CC0CDD1CEE1CED
:102C1000FF1C2A95D1F76C0D7D1D8E1D9F1D0E94F6
:102C2000E70760E270E08CEB99E00E94DB07298106
:102C3000812F012E000C990B820F911D27FD9A9573
:102C400060E170E00E94A4396C0134E0CC0CDD1C22
:102C50003A95E1F74CEBA42E49E0B42EF12CE12C8F
:102C600050E1852E912CCC0EDD1E78800981010F5C
:102C7000272D2E0DF50141816081CE010E947E1429
:102C8000282FC701870D911D77FC9A95B4010E94EA
:102C9000A439F601E80FF91FE858FF4F2083FFEF32
:102CA000EF1AFF0A82E0A80EB11CE0E1EE16F10473
:102CB000E1F6DF91CF911F910F91FF90EF90DF90A0
:102CC000CF90BF90AF909F908F907F90089520916C
:102CD000000130910101C9019695879520FD0AC038
:102CE0009093010180930001809100019091010176
:102CF0000197089524EB9227F3CF282F30E0F901B4
:102D0000E857FE4F813430F0813838F4E8E0F2E0E3
:102D1000E21BF30B849190E00895F901E85FFE4F08
:102D2000813C20F0E8E8F2E0E21BF30B849190E0B4
:102D30009195819591090895EF92FF920F931F93BA
:102D4000CF93DF931091840580918305082E000CAA
:102D5000990B1817190609F464C0609189057091E0
:102D60008A0580918B050E94E7076091ED05812F10
:102D70000E948A3900918305E92EF12C202F002E24
:102D8000000C330BE216F30609F441C00E94C7039E
:102D9000C82FD0E00E94C703D82BEE0CFF1C209157
:102DA000EE053091EF05E20EF31EF701D183C083EB
:102DB0001F5F2091890530918A0540918B052E5F18
:102DC0003F4F4F4F2093890530938A0540938B05E1
:102DD000C130D048B1F48091860590918705A091CB
:102DE00088058093890590938A05A0938B050E949E
:102DF000CD036091890570918A0580918B050E94B1
:102E0000E7070F3F09F0B1CF10928305AECF909343
:102E10008405DF91CF911F910F91FF90EF900C945B
:102E2000CD03DF91CF911F910F91FF90EF90089507
:102E300080918505811115C020918C05E091490193
:102E4000F0914A01CF01029690934A018093490183
:102E5000222321F025913491C901089520813181E7
:102E6000FBCF80918305282F220F330BE091EE05D5
:102E7000F091EF05E20FF31F208131818F5F082E63
:102E8000000C990B6091ED0570E00E94A4398093CD
:102E90008305E2CFCF92DF92EF92FF92CF93DF9341
:102EA0000E941817811520E8920791F48091710013
:102EB0008D7F8093710010929100469847981092F0
:102EC0008205DF91CF91FF90EF90DF90CF90089532
:102ED00021E020938205813020E8920731F410929E
:102EE0004A01109249010E94181797FD05C02091D0
:102EF0004801222309F454C020914701211150C0F8
:102F000021E020934B01EC01DF77209709F04BC0C3
:102F100081E080934C0146983FE9C32E3FE0D32ED9
:102F2000E12CF12CCAEFD0E0E091F005F091F10531
:102F30000995811103C081E080934C0180914B0180
:102F4000882329F080914C01882309F43FC04798D9
:102F50000E9418170097F1F19C01DE010E947B3955
:102F6000DC01CB0129E0B595A795979587952A9522
:102F7000D1F7109290002AE020939100D09299000E
:102F8000C092980080934D0190934E01A0934F0101
:102F9000B09350018091710082608093710091CF55
:102FA00010924B01B0CF9E0150E040E060E472E42B
:102FB0008FE090E00E943A3969017A0181E0C81AF5
:102FC000D108E108F10810924C01AECF4699BFCF6D
:102FD000479ABECF8FEF9FEFDC01CBCFE82FF0E019
:102FE000EE0FFF1FE55CF94F85919491A0E090589A
:102FF000AD4F10928C058093890590938A05A0931C
:103000008B058093860590938705A093880581E0C2
:1030100080938505109284059FEF9093830580939C
:1030200082058091820581110E949C168091710019
:103030008D7F809371000C944A17CF92DF92EF92AC
:10304000FF920F931F93CF93DF936C01162FF42EF3
:10305000E22E0E945B0D082F853141F58FEFE816B7
:10306000C9F088E20E94EE171092BA098091D20747
:103070008830C9F48FE296E090931809809317097D
:103080001092190910921B0981E080931A098CEFA4
:103090008093FC09DF91CF911F910F91FF90EF90EA
:1030A000DF90CF9008958BE296E0E6CF4F2D612F11
:1030B000C6010E94AC0DEC01892BB9F489EE800F9A
:1030C000883040F7E7EEE00F46E1E63020F4F0E02C
:1030D000E25EFE4F40816AEE600F0F2D212FC60188
:1030E0000E94E413EC01892BA9F28881893091F5C3
:1030F0008FEFE81679F28C818111CCCF8E2D880F5D
:10310000990BFC01ED5CF94F2491FC01EC5CF94F4B
:10311000E491FE0E120F4F2D612F8EE597E00E9475
:10312000750F882309F4B6CF4F2D612F8EE597E0F8
:103130000E94A30D8111AECF83E08E0D8C838EE2B1
:10314000DF91CF911F910F91FF90EF90DF90CF9083
:103150000C94EE178350823078F48091580782FDEA
:103160000BC080915407811103C086E00E94EE17C6
:1031700089E1809354078ECF8C81813031F08B812F
:10318000811103C082E10E94EE1781E08C8382CF1F
:103190004F925F926F927F928F929F92AF92BF9267
:1031A000CF92DF92EF92FF92CF93DF9300D000D0C7
:1031B00000D0CDB7DEB79E838D83DC0119968D904C
:1031C0009D90AD90BC901C976B01770FEE08FF08A7
:1031D00080E4482E8CE9582E612C712CC501B40175
:1031E000A30192010E94593929833A834B835C835E
:1031F000C501B4016C0D7D1D8E1D9F1DA3019201A3
:103200000E94593989819A81AB81BC8182179307C9
:10321000A407B50769F08CE20E94EE17AD81BE816C
:103220001D968C911D97893018F48F5F1D968C9395
:10323000ED81FE8181859285A385B485C80ED91E56
:10324000EA1EFB1EC186D286E386F48626960FB65A
:10325000F894DEBF0FBECDBFDF91CF91FF90EF900E
:10326000DF90CF90BF90AF909F908F907F906F90A6
:103270005F904F9008958D528D3008F0E5C0E82F93
:10328000F0E0EB5BF64E0C94B8399819B319D319EA
:10329000C319DB19EA19F019F619FC1952196F193B
:1032A0008819911980915A0790E006968436910505
:1032B00014F083E690E080935A078EE10E94EE17A7
:1032C0008091580781608093580780915907823018
:1032D00010F081E0089582E080935907FACF809141
:1032E0005A0790E006968436910514F083E690E044
:1032F00080935A0786E20E94EE17809158078260F9
:103300008093580780915907833018F783E0E4CF02
:103310008CE00E94EE1780915807846080935807D4
:10332000D8CF8CE00E94EE17809158078860F6CFC6
:1033300080915A07833608F087C0811107C09091A9
:103340005907911103C091E09093590790E00896B6
:103350008436910514F083E690E080935A078FE15C
:103360000E94EE17B6CF80914B07843608F06CC0F0
:1033700090E049968536910514F084E690E08093BC
:103380004B0782E2EDCF80914B07843608F05CC09A
:1033900090E00A968536910514F084E690E08093DB
:1033A0004B0781E2DDCF80914B07843608F04CC09B
:1033B00090E00496EFCF83E20E94EE1764E670E09F
:1033C00086E497E00E94C818809156078F5F80932B
:1033D00056077FCF84E20E94EE1764EF71E0F0CFD2
:1033E00085E20E94EE1768EE73E0EACF8DE20E945C
:1033F000EE1768E873E1E4CF809156078F5F809302
:10340000560780914B0790E08D599F4F8536910567
:1034100014F084E690E080934B0780915A0790E087
:1034200049968436910514F083E690E080935A071C
:103430008CE20E94EE1780915307893008F049CF43
:103440008F5F8093530745CF80E00895CF92DF923E
:10345000EF92FF920F931F93CF93DF93142FE0917E
:1034600019090E2E000CFF0BF12CEE15FF050CF4C4
:103470006BC0EE19FF0934E63E9FE0013F9FD00D7F
:103480001124D7FD2F96C02E422FD62EBC0154E01A
:10349000D595C7955A95E1F700E02C2D82E396E08B
:1034A0000E94AE0CD7FD50C024E6D29EC00111246C
:1034B000612F70E00E94A4399B01CB0144E0880F8A
:1034C000991F4A95E1F764E670E00E94A439E60E80
:1034D000F71E2C173D070CF4E90100E02C2D4EE6F9
:1034E0006C2F82E396E00E947E0C80911909082ED1
:1034F000000C990B8E159F055CF48AE2DF91CF9149
:103500001F910F91FF90EF90DF90CF900C94EE17EA
:10351000E816F906C9F4C436D10589F480E30E949F
:10352000EE1760E177E286E497E0DF91CF911F919B
:103530000F91FF90EF90DF90CF900C94C8188FE21E
:10354000CD2BE1F28BE2DACFDF91CF911F910F917A
:10355000FF90EF90DF90CF900895E0911909E093EC
:103560004F098AE0E802F00111249F012E5C394FD7
:10357000D901A651BD4F8C91882309F43FC0809397
:103580004B07E45EF64F81818093D207828180935E
:10359000BB09938190935A07848120513D4FD901F3
:1035A0004D915D916D917C9140934F0750935007E1
:1035B00060935107709352072581209353078B7FA7
:1035C000877F8093580726E02093BA091092B909A3
:1035D0001092B809911106C0109259078CEF809390
:1035E000FC09089581FF04C083E080935907F6CF5A
:1035F00080FF02C082E0F9CF81E0F7CF86E00C9433
:10360000EE172091460730914707FC014281538114
:10361000241B350B37FF03C031952195310945E057
:10362000359527954A95E1F740914807509149070C
:10363000FC0184819581481B590B57FF03C05195AC
:103640004195510985E0559547958A95E1F7822F77
:1036500024170CF4842F0895FF920F931F93CF9398
:10366000DF938C01D62FC42F8EE597E00E94440F84
:10367000882339F06C2F8D2F0E94960D882309F432
:1036800046C0F801F2844C2F6F2D8EE597E00E9422
:10369000440F882331F06C2F8F2D0E94960D8823C4
:1036A000B1F1F801F3844F2D6D2F8EE597E00E9464
:1036B000440F882331F06F2D8D2F0E94960D8823A3
:1036C00031F1E0E5F9E08D2F0D2E000C990B2C2F38
:1036D0000C2E000C330BE017F10781F041814423DD
:1036E00069F0408551851416150644F44285481743
:1036F000190621F443854217130679F03D9649E0F7
:10370000E83BF40741F7F801D287C38781E0DF91F6
:10371000CF911F910F91FF90089580E0F8CFFC01A9
:10372000428153812091460730914707B901605289
:10373000710946175707BCF0205E3F4F2417350725
:1037400094F04481558180914807909149079C01EC
:10375000205231094217530734F0205C3F4F81E07B
:10376000241735070CF480E00895CF92DF92EF9292
:10377000FF920F931F93CF93DF93C0E5D9E0898128
:10378000882351F088859985181619062CF4CE01E6
:103790000E948F1B811152C02D9689E0C83BD8072B
:1037A00071F7C0914807D0914907009146071091E1
:1037B0004707780188E0E81AF10825E0F594E794D6
:1037C0002A95E1F76E0188E0C81AD10835E0D59452
:1037D000C7943A95E1F74C2D6E2D8EE597E00E9447
:1037E000440F81112BC0085F1F4F95E01595079579
:1037F0009A95E1F74C2D602F8EE597E00E94440FDB
:1038000081111CC0289685E0D595C7958A95E1F76A
:103810004C2F602F8EE597E00E94440F81110EC05F
:103820004C2F6E2D8EE597E0DF91CF911F910F9178
:10383000FF90EF90DF90CF900C94440FDF91CF91E9
:103840001F910F91FF90EF90DF90CF900895BF925E
:10385000CF92DF92EF92FF920F931F93CF93DF935C
:10386000B62EFC01C281D38185E0D595C7958A9596
:10387000E1F70481158195E0159507959A95E1F793
:10388000402F6C2F8EE597E00E945B0D7E01F1E0EA
:10389000EF1AF108402F6C2F8823A1F0CE15DF0519
:1038A0002CF1680181E0C81AD1080C151D05D4F06F
:1038B0004C2D6E2D8EE597E00E945B0D81110EC0A0
:1038C0004C2D6E2D8B2DDF91CF911F910F91FF907D
:1038D000EF90DF90CF90BF900C94D00FEFEFCE1A07
:1038E000DE0AE3CFFFEFEF1AFF0AD8CFDF91CF91C7
:1038F0001F910F91FF90EF90DF90CF90BF900895B0
:10390000FC0180859185009709F473C0861797079D
:103910009CF51186108680859185892B09F060C001
:10392000CF0127E0268325E027834081242F269599
:103930002695269530E0F901EA50F74F53E0220F23
:10394000331F5A95E1F7421B21E030E0B90102C074
:10395000660F771F4A95E2F72081262B208320915E
:1039600055072F5F20935507FC012181223091F1EB
:1039700040F4213059F00895861B970B918780877A
:10398000CACF2330A9F02430E1F008956DE20E94FF
:10399000271C0E94671680FD09C086E10E94EE1771
:1039A00064E670E086E497E00C94C81889E1F6CFED
:1039B00066E30E94271C88E30E94EE1764EF71E023
:1039C000F1CF68E30E94271C82E30E94EE1768E8AB
:1039D00073E1E8CF8AE00E94EE1768EC70E0E2CF76
:1039E0008181823031F0843021F083E0868385E06C
:1039F00087830895FC018281938135E095958795B1
:103A00003A95E1F740915E07042E000C550B8417A0
:103A1000950704F16481758125E0759567952A9570
:103A2000E1F720915F07022E000C330B621773073A
:103A30008CF0415F5F4F4817590764F0215F3F4F9B
:103A400091E0261737070CF090E0848590FB80F911
:103A50008487089591E0F9CF0F931F93CF93DF935D
:103A60008C01C0E5D9E08981882319F0CE010E943C
:103A7000FA1C2D9689E0C83BD807A9F7C0E06C2F47
:103A8000C8010E94DB15CF5FC031C9F7DF91CF912C
:103A90001F910F910895CF93DF9387FD80E0C62F8C
:103AA00067FDC0E0D82F81330CF0D0E3C1330CF0B8
:103AB000C0E38091BA09823041F130915E07832FD3
:103AC000032E000C990B4D2F0D2E000C550BBC0135
:103AD0006F50710946175707C4F00F968417950762
:103AE000A4F020915F07822F022E000C990B4C2F1F
:103AF0000C2E000C550BBC016F507109461757076F
:103B000024F00F968417950754F4D0935E07C09362
:103B10005F078EE597E0DF91CF910C942C1D3D134C
:103B200005C02C1319C0DF91CF91089580915E07D5
:103B30008D173CF48F5F80935E078FE00E945115D4
:103B4000F5CF80915E07D8173CF4815080935E07D3
:103B500080E00E945115F5CF80915F078C174CF4DF
:103B60008F5F80935F076FE08EE597E00E94DB1523
:103B7000F3CF80915F07C817B4F6815080935F0739
:103B800060E08EE597E00E94DB15F3CF6F927F92A5
:103B90009F92AF92BF92CF92DF92EF92FF920F93DC
:103BA0001F93CF93DF9300D01F92CDB7DEB78091E4
:103BB0004B0781110BC081E08093590788E0809307
:103BC0005A0784E680934B071092580710923206EA
:103BD00010925B0780915D078E7F8D7F80935D07DC
:103BE00010925407109255071092560710925707DB
:103BF000F12CE12C10E0712C612C670148E0C40E1F
:103C0000D11C612F862D0E944B1D809146079091FB
:103C10004707B090480700914907F0914A0730E004
:103C200020E0B601620F731F660F771FD901AA52F9
:103C3000B84F50E040E09D90E7EDE90DE43090F49E
:103C4000C301840F951FE5E0880F991FEA95E1F7FE
:103C50004096E2E0E90DFE2FF295FF0FFF0FF07C9A
:103C6000B62E072F4F5F5F4F4031510521F7205F80
:103C70003F4F211541E03407A1F690934707809309
:103C80004607B092480700934907F0934A0780E13E
:103C9000680E711C90E46916710409F0B2CFF394B8
:103CA000105F103409F0A7CF0F900F900F90DF91A5
:103CB000CF911F910F91FF90EF90DF90CF90BF9029
:103CC000AF909F907F906F90089580911909809395
:103CD000BB091092D20783E08093530710924F07DD
:103CE00010925007109251071092520710924B07F2
:103CF0000E94C61DE8E5F7E080818B7F877F808387
:103D000086E08093BA091092B9091092B8090E940E
:103D100043048CEF8093FC0908952F923F924F92B9
:103D20005F926F927F928F929F92AF92BF92CF924B
:103D3000DF92EF92FF920F931F93CF93DF93CDB754
:103D4000DEB72A970FB6F894DEBF0FBECDBF8091C5
:103D50004A07805C0E947D166C0180914A070E9490
:103D60007D167C018091540718161CF481508093B5
:103D7000540780914B07882309F4F0C380918D0587
:103D8000282F20712A87982F9072803109F0D5C092
:103D900080914E078111AEC081E080934E07992338
:103DA00009F4D9C080915D0780FD0AC081608093CD
:103DB0005D0781FD09C0826080935D0710925C07FA
:103DC00080915D0781FF10C080915C078F5F8093B9
:103DD0005C07863009F4FDC108F0C3C0823009F4E5
:103DE000FCC1843009F4CDC060918D0562FF0BC227
:103DF00047E04C9D90014D9D300D1124220F232F43
:103E0000221F330B3195219531094E9DC0014F9DE5
:103E1000900D1124880F892F881F990BAA24BB2489
:103E2000A81AB90A60FF17C077E07C9DA0017D9DAC
:103E3000500D1124440F452F441F550B240F351FDF
:103E40007E9DA0017F9D500D1124440F452F441FDE
:103E5000550BA40EB51E63FF1BC05A85552309F4EC
:103E6000D7C177E07E9DA0017F9D500D1124440FA6
:103E7000452F441F550B240F351F7C9DA0017D9DB0
:103E8000500D1124440F452F441F550BA41AB50A99
:103E900050E040E061FF1BC08A85882309F4BBC164
:103EA000E7E0EE9DB001EF9D700D1124660F672FC6
:103EB000661F770B261B370BEC9DB001ED9D700D37
:103EC0001124660F672F661F770BA60EB71E452BB2
:103ED00009F4A5C140914D0747FD03C04FEF409342
:103EE0004D0740914D07493F0CF49BC14150409311
:103EF0004D0797C1823078F110924E078091590793
:103F0000813059F48091580780FF0BC082E0809384
:103F1000590745CF1092590742CF823031F4809132
:103F2000580781FFF7CF83E0F2CF833099F3809178
:103F30005A07882381F081E0EACF811109C080917E
:103F40004E07882341F08F5F80934E07863018F02C
:103F500010924E0724CF80915D078E7F80935D077E
:103F60002FCF883009F44AC108F43DC18A3009F0E6
:103F70003BCF10925B0780915D078D7F80935D073B
:103F800033CF82E080935B0780915907813009F439
:103F9000C2C008F4BCC0823009F4BFC0833009F449
:103FA000BEC080915907882329F080915A0781501B
:103FB00080935A0790914A0780E4891B0E947D16DE
:103FC00098878F8380914A0781950E947D169A83F6
:103FD0008983E0914607F0914707FC83EB8340918A
:103FE0004807509149075E834D8320905907E1E5CA
:103FF000F9E010E000E05FEF5987312C80818823E1
:1040000009F463C087819085181619060CF05DC00D
:10401000818092808B819C81881A990AA380B480C8
:104020004D815E81A41AB50A2F813885D4010E9482
:10403000BE392B013C01B7E07594679457944794BF
:10404000BA95D1F729813A81D5010E94BE3927E07E
:1040500095958795779567952A95D1F7A201461B87
:10406000570B463051058CF19401A981BA810E9409
:10407000BE392B013C0177E07594679457944794BF
:104080007A95D1F72F813885D5010E94BE39A7E0F6
:104090009595879577956795AA95D1F7460E571E02
:1040A00089EF48168FEF580684F098E049165104BE
:1040B00064F4411520E1520714F0222031F03985D3
:1040C0003F3F79F14017510764F13D96339448E042
:1040D000341294CF59855F3F09F46DC0252F550FD9
:1040E000330B211021C00E94671664E095958795D7
:1040F0006A95E1F7BC016F707727E985FDE0EF0273
:10410000C0011124805B964F0E94801C54C087E13F
:104110000E94EE1746CF88E1FBCF8AE1F9CF8BE012
:10412000F7CF8A013986D1CF5DE0B52EB29EC001AE
:10413000B39E900D11248E5C994FFC01EE5DFC4FF7
:1041400000811181805E9C4FFC01208131814D8175
:104150005E816B817C818EE597E00E94CC0D882387
:1041600079F1F9852B2DF20280011124005B164FA5
:10417000C8010E94011B8983823044F40E946716A3
:1041800086958695682F70E0C801BECF398134309E
:1041900034F40E94671666E00E948A39F3CF0E94C9
:1041A00067166CE00E948A394981242F440F330B33
:1041B0008217130674F780915907882309F414CEE7
:1041C00080915A07811110CE1092590710925C0706
:1041D000D0CE80915907823021F481E080935B0733
:1041E00003CE83E0FBCF80915907833009F0FCCDEB
:1041F000992309F4BECE80935C07F6CD80915907D0
:10420000823059F7F5CFB12CA12C30E020E00ACE56
:104210004FEF5FEF3FCE4F3F5F4F09F083C11092EA
:104220004D0740914D0747FD4F5F459550914A0717
:10423000450F40934A07E0914607F0914707FA83FC
:10424000E9832E0F3F1F30934707209346070091C5
:10425000480710914907A00EB11EB0924907A092DD
:1042600048070E94B51B8823D1F01093490700939B
:1042700048070E94B51B882391F029813A81309329
:10428000470720934607B0924907A09248070E942B
:10429000B51B882321F0109349070093480700912C
:1042A00046071091470725E0159507952A95E1F7F0
:1042B000702E409148075091490735E05595479534
:1042C0003A95E1F75A83498369802FEF462D602F95
:1042D0008EE597E00E941D184981602F8EE597E0DA
:1042E0000E945B0D8C34D1F488E40E94EE1710928A
:1042F000BA098091D207883009F022C18FE296E096
:1043000090931809809317091092190910921B09AC
:1043100081E080931A098CEF8093FC099601D7FE07
:1043200004C0222733272C193D09C701F7FE04C01A
:10433000882799278E199F09821793070CF003C1CC
:1043400021E0498161E01C141D041CF023E0498137
:104350006FEF600F8EE597E00E941D1810EC812E24
:1043600017E0912E82EDA82E87E0B82E9BEF592EF4
:10437000F4018081882371F0918179120BC09281C0
:10438000691208C00E943B19882321F0F4011082B1
:1043900050923206F3E08F0E911CA814B90441F735
:1043A0004981602F8EE597E00E945B0D93ED980F99
:1043B0009D3008F079C00E943B19882309F474C02D
:1043C0004981602F8EE597E00E94750F882309F4DC
:1043D00068C0298130E42302B0011124600F711DEF
:1043E00007FD7A95660F771F4B01770FAA08BB0868
:1043F0008091D207082E000C990BAA0BBB0BBC01B5
:10440000CD01AEE0660F771F881F991FAA95D1F7DF
:10441000680D791D8A1D9B1D0E94E70762E070E010
:104420008CEB99E00E94DB072091BD09822F8695D5
:104430008695869590E0FC01EA52F74FB3E0880F2D
:10444000991FBA95E1F7281B81E090E0AC0102C00A
:10445000440F551F2A95E2F78081842B8083598170
:104460005F78598357FF04C05150506F5F5F598385
:104470009981E0E19E02C00111249A8389830F781B
:1044800007FF03C00150006F0F5F29813A81225A54
:10449000384F200F311D07FD3A9528583F4FF9013D
:1044A00010828BEF809332062091480730914907A4
:1044B00085E0359527958A95E1F7C70163E170E0BE
:1044C0000E94A439260F371F2850E0914607F0912B
:1044D000470795E0F595E7959A95E1F7C60163E101
:1044E00070E00E94A439CF01860F971F622F885079
:1044F0002A960FB6F894DEBF0FBECDBFDF91CF91E5
:104500001F910F91FF90EF90DF90CF90BF90AF90F1
:104510009F908F907F906F905F904F903F902F90E3
:104520000C944B1D40914D0714161CF041E0409334
:104530004D0740914D0748300CF073CE4F5FD7CCFC
:104540008BE296E0DDCE22E049814F5F1E141F040E
:104550001CF020E049814150602FFCCE90914A0729
:1045600080E4891B0E947D168C0180914A07819509
:104570000E947D1640914C07FDE04F9FA001112441
:104580004E5C594FFA01E05EFC4F20813181609111
:10459000460770914707261B370BDC010E94BE3986
:1045A0004B015C0167E0B594A794979487946A9552
:1045B000D1F74E5D5C4FFA0120813181809148072F
:1045C00090914907281B390BD8010E94BE39E7E0BA
:1045D0009595879577956795EA95D1F79401260F7C
:1045E000371F3A83298380914A07121613060CF06D
:1045F0004DC0885F80934A0790914A0780E4891BE9
:104600000E947D168C0180914A0781950E947D163B
:1046100040914C073DE0439FA00111244E5C594F4F
:10462000FA01E05EFC4F2081318160914607709174
:104630004707261B370BDC010E94BE394B015C018A
:1046400027E0B594A794979487942A95D1F74E5D67
:104650005C4FFA0120813181809148079091490790
:10466000281B390BD8010E94BE3937E095958795F4
:10467000779567953A95D1F7680D791D29813A812B
:1046800037FF06C077FF0BC085E00CCF8850B2CF54
:1046900049815A81452BC1F316161706ACF384E005
:1046A0008093BA091092B9091092B809EDCF1F9200
:1046B0000F920FB60F9211248F939F938091E10078
:1046C0009091E100937F9093E10083FF0FC01092DF
:1046D000E90091E09093EB001092EC0092E390934C
:1046E000ED0010927D0198E09093F00082FF22C0CF
:1046F00093E09093E9009091F200992319F09AE3E6
:104700009093E80090916E01992341F090916E0191
:10471000915090936E01911101C05D9A90917C012E
:10472000992341F090917C01915090937C019111DB
:1047300001C0289A84FF18C08091E2008E7E8160BB
:104740008093E2008091E1008F7E8093E100809170
:104750006F018E7E806180936F019F918F910F908A
:104760000FBE0F901F90189580FFF7CF8091E20049
:104770008E7E80618093E2008091E1008E7E809346
:10478000E10080916F018E7E8160E5CF1F920F92D4
:104790000FB60F921124CF92DF92EF92FF920F93F8
:1047A0001F932F933F934F935F936F937F938F93B9
:1047B0009F93AF93BF93EF93FF93CF93DF93CDB7C7
:1047C000DEB76C97DEBFCDBF1092E9008091E800A4
:1047D00083FF25C068E0CE0145960E94C30782EFA3
:1047E0008093E8008D8987FF39C09091E80090FFA1
:1047F000FCCF982F907609F034C19E894F89588D4F
:104800002F89F88C911131C0803861F580916D014C
:104810008093F1001092F1008EEF8093E8006C9687
:104820000FB6F894DEBF0FBECDBFDF91CF91FF91E1
:10483000EF91BF91AF919F918F917F916F915F9118
:104840004F913F912F911F910F91FF90EF90DF902B
:10485000CF900F900FBE0F901F9018959EEF9093E2
:10486000E800C7CF1092F100D5CF913059F48111F3
:10487000D3CF4130510581F680916D018D7F8093BA
:104880006D01CACF933049F48111C6CF4130510533
:1048900019F680916D018260F2CF953041F48091DC
:1048A000E80080FFFCCF20682093E300B5CF96306E
:1048B00009F0A9C00B8D1C8D22E01092E900109226
:1048C0006B0110926A01F2122EC0109269011092CF
:1048D00068010E9492071F8299E09983FA8291E011
:1048E0009E8390EA98879AEF998720916A01309188
:1048F0006B01275F3F4F3C832B838D831092E90030
:1049000010926B0110926A01109369010093680183
:1049100049E050E0BE016F5F7F4F80E00E946C076E
:104920000E94920779CF10936901009368010E9459
:104930007606DC0112960D911C910115110509F402
:1049400051C1D801ED91FC910480F581E02DBE01AB
:104950006B5E7F4FC8010995009709F03EC1F801D1
:1049600000851185EACFF3E0FF120EC08F898823FE
:1049700009F440C0823061F440E867E085EE94E0DD
:104980000E943907811148CF81E28093EB0047CF25
:10499000813029F440E86BE089ED94E0F1CF833079
:1049A00099F70E947606DC011296ED90FC908E013C
:1049B0000F5F1F4F6801E114F10479F0D701ED9109
:1049C000FC910680F781E02DB801C7010995080F19
:1049D000111DF701E084F184EECFD8011C92F6019D
:1049E00001900020E9F73197BF016C197D0940E083
:1049F000C601C6CF63EC74E0FB01449150E080E84F
:104A00000E946C0709CF973009F4BECF983021F48B
:104A100081E08093F10000CF993009F0FDCE8370E2
:104A200009F0B2CFE0E1F1E081E031E096E32191DD
:104A3000222371F08093E9003093EB00DF0111979E
:104A40002C912093EC009093ED008F5F873079F7E5
:104A50008EE78093EA001092EA008F8980937D01AF
:104A6000DBCE8B8D9C8D1092E90010926B01109221
:104A70006A019093690180936801898D811192C0C8
:104A80008E899D89913A49F4813209F07DCF47E0C2
:104A900050E067E071E080E0B3CF913209F074CF6D
:104AA000833269F48F89988DB0E0A0E08093030190
:104AB00090930401A0930501B0930601ADCE80321E
:104AC00069F48091E80082FFFCCF67E087E091E025
:104AD0000E94C3078BEF8093E8009ECE823209F0DC
:104AE0009BCE8F8980930E01EEEFFFE78591949125
:104AF0008B3F9C4D51F1E0E0F8E0809107019091EF
:104B00000801A0910901B0910A01803B9440A105E0
:104B1000B105F1F480910E0180FD1AC0EE3F8AE0EC
:104B2000F80789F587E797E7918380838091600094
:104B300080936C0188E19BE00FB6F894A895809370
:104B400060000FBE9093600067CEEEEFFAE0D5CF25
:104B5000808191818737974709F05ECEA895809133
:104B6000600088618093600080916C018093600098
:104B7000EE3F2AE0F20789F08091FE0A9091FF0A49
:104B80009183808349CE808191818737980751F244
:104B90009093FF0A8093FE0AC5CF1092FF0A1092ED
:104BA000FE0A3ACE0E947606DC0112960D911C9107
:104BB0000115110509F4E8CED801ED91FC910190A1
:104BC000F081E02DBE016B5E7F4FC8010995811118
:104BD00023CEF80100851185EBCF181619060CF4C9
:104BE0001BCED2CEF1E0FF12BECE67EC74E004CF54
:104BF0000F920FB68F939F93EF93FF938091520183
:104C00008D5F8D3708F08D5780935201EDE5F1E00F
:104C100080818E4F808391819F4F918382818F4FBE
:104C2000828383818F4F8383E3E5F1E080818F5F0F
:104C3000808381818F4F818382818F4F82838381A3
:104C40008F4F83838FB18F6066991C9B88278F3627
:104C500081F480915101981B963068F0E0E0F8E013
:104C600087E78083818388E180936000F093600010
:104C7000FFCF90935101FF91EF919F918F910FBEC4
:104C80000F9018951F920F920FB60F9211242F9329
:104C90003F934F935F936F937F938F939F93AF93C4
:104CA000BF93EF93FF9380914D0190914E01A0919E
:104CB0004F01B0915001892B8A2B8B2B09F440C0F6
:104CC00080914C0181110BC088B190E4892788B98B
:104CD00080914B01882319F088B1805888B9809160
:104CE0004D0190914E01A0914F01B09150011816C5
:104CF00019061A061B069CF480914D0190914E01F5
:104D0000A0914F01B09150010197A109B109809381
:104D10004D0190934E01A0934F01B0935001FF912C
:104D2000EF91BF91AF919F918F917F916F915F9123
:104D30004F913F912F910F900FBE0F901F9018959C
:104D40000E944A17ECCFEFE8F5E01382128288EE5A
:104D500093E0A0E0B0E084839583A683B78388E2E4
:104D600091E0918380838FEF9FEF9587848781EA1D
:104D700093E09093F1058093F00582EF95E0909396
:104D8000EF058093EE0580E28093ED0580E090E8EA
:104D90009093EC058093EB0546983E9A47983F9A8E
:104DA0000895CDB7DEB76F97DEBFCDBF789483E0AF
:104DB00084BD83E085BD81E080936E00E1E8F0E092
:104DC00083E08083E0E881E08083E1E983E0808321
:104DD000E0E981E08083E1EC87E08083E3EC81E03F
:104DE0008083E0EC82E08083E2EC81E08083EAE78C
:104DF00087E080838068808310927D0110926D012E
:104E000010926F018091D70081608093D70080EA73
:104E10008093D80089B5806189BD89B5826089BDDC
:104E200009B400FEFDCF81E090E00E94700B8091FC
:104E3000D8008F7C80618093D8008091E000807FD3
:104E40008093E0008091E1008E7E8093E1008DE010
:104E50008093E200559A209A81EC80937C0081EF48
:104E600085B987EE84B982E38BB982EF8AB9769AE5
:104E70006E9880EF81BB10BA80E58CBD81E08DBD5E
:104E80000E94840B5F9A0E94840B5C98E5EFF1E02E
:104E900085918EBD00000DB407FEFDCFE230C1F755
:104EA0005C9A81E88093640081E08093650088E2E9
:104EB0008093020182E090E00E943239882309F455
:104EC000B9C00E94300C0E94300C5E9AE4E1F0E020
:104ED00083EF9BEF60EF7FEF2591359155914591E1
:104EE0002851354909F4CA0180935701909358011C
:104EF00025913591559145912851354909F4BA01CB
:104F000060938005709381058BEA0E94680B83E3B0
:104F100090E00E94A40380913A0981113EC08AE486
:104F200080933A0988E480933B0980933C0980E1AF
:104F300097E2A0E0B0E080933D0990933E09A093F2
:104F40003F09B09340098BE48093410985E4809345
:104F5000420986E58093430988E293E2A0E0B0E04D
:104F60008093440990934509A0934609B09347095B
:104F70008DE48093480982E58093490982E4809317
:104F80004A0980E49FE1A0E0B0E080934B09909350
:104F90004C09A0934D09B0934E098DE594E0909390
:104FA0001809809317091092190910921B0981E0C2
:104FB00080931A098CEF8093FC0982E08093BB09EF
:104FC0001092160910925E0710925F071092BA09AC
:104FD0001092D2078FB7F89440915D0150915E0115
:104FE00060915F01709160018FBF8091620190912B
:104FF0006301840F951F2091640130916501821B2C
:10500000930B9093630180936201409364015093EA
:105010006501609366017093670180915B0188234D
:1050200061F010925B0180E090E0892B99F20E9480
:105030000000D0CF0E942B0C46CF90915D01809153
:105040005C01492E481A842D20910201421640F439
:105050008F5F821740F781E083BF889513BEE3CF4F
:1050600081E080935B0190935C01E9E5F1E0808150
:1050700091810196808391838091820581110E94A4
:105080009C1610928D050E94230C83FF05C0809111
:105090008D05806180938D050E94230C82FF05C0E1
:1050A00080918D05806280938D050E94230C87FF7F
:1050B00005C080918D05816080938D050E94230C31
:1050C00084FF05C080918D05846080938D050E94CA
:1050D000230C85FF05C080918D05886080938D0528
:1050E0000E94230C86FF05C080918D05826080930D
:1050F0008D0580918E05817091E098272091610146
:10510000921721F0882341F10E942B0C80916201BB
:105110009091630189970CF4B7C68091BA098430E5
:1051200009F484C6E0F4882309F487C4833009F4C1
:1051300066C08091B8099091B90901969093B90918
:105140008093B80980916201909163018897909350
:10515000630180936201DACF0E94300CD7CF853093
:1051600009F42FC6863029F78091B8099091B909C2
:10517000C397FCF282E08093BA09E0E5F9E08FEF93
:10518000118280833D9629E0E83BF207C9F781E070
:1051900080931609E6EDF8E01192178E38E0E63FAD
:1051A000F307D1F7E0E6F7E01082369647E0E03CFF
:1051B000F407D1F71092C0071092C3071092C607E8
:1051C0001092C9071092CC071092CF071092D50702
:1051D0001092D3071092D4070E94C61D0E948D1E04
:1051E0001092B9091092B80983E08093BA098EE54C
:1051F00097E00E942C1D8CEF8093FC099ACF0E94AF
:105200008D1E80914B07882309F493CF20E637E069
:105210003A83298300EC17E037E0F32E42E0E42ED6
:10522000A981BA818C91882351F014968C91823097
:1052300009F4A5C008F04FC0813009F491C029815C
:105240003A812A5F3F4F3A8329830217130741F7B8
:1052500040E559E0588B4F87B12CA12C12E0712EFC
:1052600005E0502E83E0482E94E0292EAF85B889C2
:1052700011968C911197882309F4DCC0CD010E940E
:10528000FA1CBDE0BA9DF001BB9DF00D1124E45A5B
:10529000F64F808180FBDD24D0F880FDCBC0E0900C
:1052A000B809F090B909C70183709927AF85B8890B
:1052B0001696EC91E93008F0BBC3F0E0EE59F64DDC
:1052C0000C94B839D429012D362A012DDB2BE62B7D
:1052D000B42C052DFA29873008F0B1CFE981FA8185
:1052E00093819F5F903211F09383A9CFA981BA81F6
:1052F00013961C9213978350990B880F991FFC01EA
:10530000ED5CF94FC490FC01EC5CF94FD490119620
:10531000EC911197EC0D1196EC93119712968C91DC
:1053200012978D0D12968C93D80ECE0E4D2D6C2D9E
:105330008EE597E00E94750F882349F04D2D6C2D66
:105340008EE597E00E94A30D882309F478CFE981C8
:10535000FA81F482809157078F5F809357076FCF50
:10536000A981BA8113968C9113978F3320F48F5FA4
:1053700013968C9364CFE981FA81E48260CFA9818E
:10538000BA8113968C911397882351F0815013960C
:105390008C93803109F053CF83E10E94EE174FCFF9
:1053A000E981FA8114824BCFBFE0EB22FF24EF2882
:1053B00009F500914807109149072091460730915F
:1053C0004707EF85F88944815581628173818EE5B5
:1053D00097E00E94CC0D882369F081E0AF85B88901
:1053E00016968C93169711968C918230B9F180F5B0
:1053F0008130C1F1EF85F8894481558157FF02C0A2
:10540000415E5F4FB5E055954795BA95E1F7AF8599
:10541000B88912966D917C9177FF02C0615E7F4FD3
:10542000A5E075956795AA95E1F72FEF8EE597E0D2
:105430000E941D18BFEFAB1ABB0AEF85F8893D9695
:10544000F88BEF87F8E0AF16B10409F00FCF71CEFB
:10545000833051F0843071F681E301C089E20E940B
:10546000EE17C8CF85E1FBCF83E3F9CFAF85B889CD
:105470001196BC91B98388248394912CB23019F48D
:10548000B2E08B2E912C81E0EF85F88987836384CD
:105490003284462D632D8EE597E00E94440F8823C9
:1054A000C1F1F981F23039F02FEF462D632D8EE5F1
:1054B00097E00E941D18009148071091490720911C
:1054C000460730914707EF85F8894481558162810D
:1054D00073818EE597E00E94CC0D882309F48ACF72
:1054E0008F8598890E94011B082F880F110BAF85AB
:1054F000B88911968C91823009F050C101301105A4
:1055000009F078CFD11076CFEF85F88926824782CF
:1055100071CF20E2329EC0011124AC01405F5F4F89
:1055200058874F8350E2659EC0011124BC01605F23
:105530007F4F7A876987982D082D0195AF85B889A7
:1055400012960D90BC91A02DBC83AB83842F8A1B37
:10555000C02E801724F0C82C88150CF4C82EEF85B7
:10556000F8890480F581E02DFE83ED8389858E1B0B
:10557000801724F0092F89170CF4082F0C2C000C2D
:10558000DD082B813C812C0D3D1D3C872B87AF8591
:10559000B88913963C932E931297002E000C110B92
:1055A000ED81FE81E00FF11FFE87ED871596FC93DC
:1055B000EE931497CD010E948F1B882381F0EB811D
:1055C000FC81AF85B8891396FC93EE9312972D81D9
:1055D0003E8115963C932E931497D12C6CCFC70126
:1055E000959587959595879583708330D9F1AF858B
:1055F000B88917968C93F981F43051F120913D06CA
:1056000030913E06C29EC001C39E900DD29E900D69
:10561000112440913B0650913C06049F9001059F48
:10562000300D149F300D1124820F931F40EDB401F3
:1056300046039001479F300D112482179307BCF455
:10564000AF85B88917968C911797865F17968C93BC
:105650002F8138854B855C8524173507C1F0DD2403
:10566000D39429CF81E0EF85F8898783C4CF20E3E5
:1056700030E08A94892811F020E630E028173907B5
:105680003CF7EF85F8898781835F8783E1CF698560
:105690007A858D859E856817790709F76091460799
:1056A00070914707E5E075956795EA95E1F7E62E75
:1056B000162F131911160CF05DC011E080914807E8
:1056C0009091490755E0959587955A95E1F7F82E01
:1056D000082F061910160CF051C001E00E94671641
:1056E0003E1050C01FEF803428F08095182F111FF6
:1056F0001127111FAF85B8891B964C911B97400F3E
:105700001A966C911A97610FCD010E942C1B811182
:10571000A6CFEF85F8896285610F4385CF010E948E
:105720002C1B81119CCFAF85B8891B964C911B9780
:10573000400F1A966C911A97CD010E942C1B811173
:105740008ECFEF85F8894385400F6285611BCF01BD
:105750000E942C1B811183CFAF85B8891B964C9179
:105760001B97401B1A966C911A97610FCD010E94EE
:105770002C1B75CF17FFA2CF1FEFA0CF07FFAECF17
:105780000FEFACCF6F10B6CF0FEF803408F4B2CF6D
:105790008095082F001F0027001FACCF0E946716BE
:1057A000282F80E190E0B8010E94A439261717063F
:1057B0000CF4AACE1FCE892B09F01CCEAF85B88978
:1057C00016965C92169717964C9214CE892B09F078
:1057D00011CE26E0EF85F8892683478281818230C9
:1057E00009F494C008F08BC0813009F493C0AF85F0
:1057F000B88917962C92179700914807109149077E
:10580000209146073091470714964D915C9115976A
:1058100012966D917C918EE597E00E94CC0D8823C5
:1058200009F4E8CD8F8598890E94011B182FEF8518
:10583000F8898181823019F412300CF0DBCD0E949E
:10584000671620E130E0211B310917FD339544E054
:10585000220F331F4A95E1F7821713060CF0CACDC9
:1058600012300CF05BC00E94671695958795959550
:1058700087958F73882309F4BDCD9091BB09911151
:1058800003C08695869561F05092320690914B0741
:10589000981708F057C010924B0789E00E94EE1746
:1058A00080914B078111A6CD2F85388949E020359D
:1058B000340709F44BC059E02D35350709F448C0C9
:1058C00069E02A36360709F445C079E027373707FB
:1058D00009F442C089E02438380709F43FC099E050
:1058E00021393907E9F1A9E02E393A07D9F187E0E2
:1058F0002B5A394009F07ECD80934C077BCD833005
:1059000059F0843009F073CF8BE301C084E40E9426
:10591000EE176DCF8AE3FBCF8CE3F9CF14304CF454
:105920000E94671603E0959587950A95E1F78F71B8
:10593000A1CF0E94671614E0959587951A95E1F717
:105940008F7098CF981B90934B07AACF80E0D4CF4D
:1059500081E0D2CF82E0D0CF83E0CECF84E0CCCF45
:1059600085E0CACF86E0C8CF892B09F043CDEF850B
:10597000F889F180F3E0FF1641F024E0F21661F1BE
:10598000AF85B88916967C9235CD0E9467168370D4
:10599000B9F00091480710914907209146073091CE
:1059A0004707AF85B88914964D915C91159712966B
:1059B0006D917C918EE597E00E94CC0D811104C021
:1059C000EF85F889768216CDAF85B88916965C92F8
:1059D00016971796FC920ECD009148071091490733
:1059E0002091460730914707EF85F889448155811A
:1059F000628173818EE597E00E94CC0D882301F3CC
:105A0000DDCE892B09F0F6CCDBCF892B09F0F2CC67
:105A1000AF85B88917968C9117978F5F17968C93DF
:105A20001797893009F0E6CCE8E01696EC93E2CCC3
:105A3000AF85B88917961C92DDCC80911B0988230D
:105A4000C9F01CF0815080931B0980911B0987FFCE
:105A500003C08F5F80931B0980911B0981110AC0CD
:105A600080911709909118098957944019F084E0A2
:105A70000E94EE1780911A09811165C08091170963
:105A8000909118098957944009F087C080918D053D
:105A9000887151F080911909181634F4815080935F
:105AA000190985E00E94EE1790918D05892F827269
:105AB00059F08091190982300CF04EC08F5F8093AD
:105AC000190985E00E94EE1780918D0582FF1CC0A8
:105AD000E0914F098091190957E0E502F001112486
