:100000006CC4000092C4000090C400008EC40000C4
:100010008CC400008AC4000088C4000086C40000AC
:1000200084C4000082C400000C946C260C94DB266F
:100030007CC400007AC4000078C4000076C40000CC
:1000400074C4000072C4000070C400006EC40000DC
:100050006CC400006AC4000068C400000C945429F9
:1000600064C4000062C4000060C400005EC40000FC
:100070005CC400005AC4000058C4000056C400000C
:100080000C940D2952C4000050C400004EC400005E
:100090004CC400004AC4000048C4000046C400002C
:1000A00044C4000042C4000040C4000000004601F7
:1000B0008B02CF03110551068D07C608FB092C0BD7
:1000C000570C7D0D9E0EB90FCE10DC11E412E61315
:1000D000E014D515C216AA178A186419381A051B18
:1000E000CD1B8E1C4A1DFF1DB01E5A1F0020010291
:1000F0000408102040800103070F1F3F7FFFFFFE11
:10010000FCF8F0E0C080FFFFFFFFFF7F5555FF3F89
:100110003333AA2A9224FF1F711C991945175515CC
:10012000B11349121111FF0F0F0F380E790DCC0CBE
:10013000300CA20B210BAA0A3D0AD8097B0924091D
:10014000D30888084208FF07C107870750071C0724
:10015000EB06BC06900666063E061806F405D105B9
:10016000B00590057205550539051E050505EC0419
:10017000D404BD04A70492047D0469045604440415
:10018000320421041004FF03F003E003D203C3038D
:10019000B503A8039B038E038103750369035E0304
:1001A000530348033D03330329031F0315030C03C3
:1001B0000303FA02F102E802E002D802D002C80208
:1001C000C002B902B102AA02A3029C0295028F02E8
:1001D000880282027C02760270026A0264025E0277
:1001E000590253024E02490243023E0239023402CE
:1001F00030022B02260222021D02190214021002F2
:100200000C0208020402FF01FC01F801F401F001F4
:10021000EC01E901E501E101DE01DA01D701D401D8
:10022000D001CD01CA01C701C301C001BD01BA019E
:10023000B701B401B201AF01AC01A901A601A4014B
:10024000A1019E019C0199019701940192018F01E6
:100250008D018A0188018601830181017F017D0171
:100260007A01780176017401720170016E016C01EE
:100270006A01680166016401620160015E015C015E
:100280005A015801570155015301510150014E01C6
:100290004C014A0149014701460144014201410123
:1002A0003F013E013C013B01390138013601350176
:1002B0003301320130012F012E012C012B012901C4
:1002C00028012701250124012301210120011F010B
:1002D0001E011C011B011A0119011801160115014B
:1002E00014011301120111010F010E010D010C0186
:1002F0000B010A01090108010701060105010401BA
:10030000030102010101000000AA55AA55FFFFFFE9
:100310001700030CCE390000994C000003002E0298
:10032000D1010000C411100184001000980C2E3A75
:10033000F243B94AB12A877CB726AE22211FAA2AE6
:10034000A23A0A00500184284A298A10A10A000012
:10035000BE78BF2A2E463F3ABF46BF042E669F7C1A
:10036000F147F1019F6C1F425F7C3F783F7EBF08E1
:100370002E7ABF68B226E1071F7E071F1F7D9B6C88
:10038000833EB94E3F028360F103220810424100D0
:100390004C7A5F324C4A4C7E4C53BE00D6035F70A1
:1003A0001D00B0019F681F009E785E704C325E1188
:1003B00044799E0856034F020E7A061B1E79924915
:1003C000823ADA02C47D0000DF1100000000FE0264
:1003D000FA2A1202728A72027A8262827A02FAAA75
:1003E0008A02FA2AD3040E1F4000400040005F0535
:1003F0005A005F15510052154900411F41005E052A
:100400005E005F055A00411F41004000400040006F
:10041000FF004E114E00471847005F1551005F0561
:100420005A0047184700511F51005F1551004F10E7
:100430004E104F00400040004000FF0040004000D0
:10044000400040004000400040005F054200511F56
:100450005100411F41004E1151005F045F004000F8
:1004600040004000FF00404040404040404040408D
:1004700040404040404040404E595F405F505F40E8
:10048000515F5140415F41404040404040407F000B
:1004900018183C7E002499423C0000000000000037
:1004A00000000000E0E020E0C000E0E0000000000C
:1004B000C0E020E0C000E0E080E0E00000000000DC
:1004C000000000000000808080800000808080802C
:1004D000000F0F81818000070F888C8C000F8F81A7
:1004E0008F8F008C8D898F070080808000000080B6
:1004F0008080803F3F040703003F3F043F37003FB9
:100500003F043F3F001F3F20311100003F3F0000EC
:10051000203F3F20001F3F203111001F3F24353175
:1005200000000000004CDE92F664007CFE82C644AF
:10053000007CFE82FE7C00FEFE12FEDC007CFE9251
:10054000D6C6004CDE92F6640000000000000000F9
:1005500080C0F03C7CF0800000000080E06080C043
:10056000E060E0000080C0C06060C0F87F0700006D
:10057000E0E000000000C0C00000C0F038180C0629
:1005800006068E8E000080C0E06060E0800080FC87
:100590007F07C0F0FCCEC3C34F0630381E070706E6
:1005A0000602030F1E3830001F3F1E03010000002B
:1005B000001E3F3130180E1F3F3010001F3F3030FB
:1005C000180C1E3F20001F3F3030303818CCFE0F73
:1005D00001003E7F616070381F07007F7F00007858
:1005E0007F0300000000000000F838000000000059
:1005F00000FC7C0000000080C0C0C0C0000080F88B
:100600007E0E0080C06060E0C000000000000000BE
:1006100000E0E60600C0C00080C0C0C0800000004E
:100620000000000000000080E07030181818183832
:10063000F0E000C0C00080C0C0C0800000000080AA
:10064000C06060E0C0000080F8780000007C7F039C
:1006500003030303037F7F0000003C7F6360703867
:100660001F0F007F7F00001E3F3736333118080010
:1006700000000000003C3F0100383F0F0701000070
:100680001F3F3000000000000000001E3F7160604E
:10069000603030180E0701383F0F070100001F3F80
:1006A0003010001E3F37363331180830370700004E
:1006B00000FFAA55AA11000000110055AAFFAAFFC9
:1006C000FFF808F000F8A88800D820D80008F8083B
:1006D00070C8F000F880F80088F8880008F808046E
:1006E000069F060402060F0602426573743A000371
:1006F000022272FA222202022222FA722202FE0050
:10070000FAA85200FAA88A0092A84AFA22FA0272BB
:100710008A7202FA828202FAAA8A020202020202A1
:100720000202020202FE0002000200FA281200F297
:1007300028F200FA28D200020002000200020002A1
:1007400000FF0092A84A00FA20FA00728872000A9C
:10075000F80A0002000200020002000200FF00DEB0
:10076000254A1D7B1E2C1FB71C9424251E891DEBBA
:100770001D85194C1B70887090F880C8A89088A8B7
:10078000503820F8B8A84870A84008C83850A85079
:1007900010A87041524455474F4C46000306090CBF
:1007A0000F1215181B1E2225272A2D303336393CEF
:1007B0003E414446494B4E505355575A5C5E606229
:1007C0006466686A6B6D6E70717374757678797A29
:1007D0007A7B7C7D7D7E7E7E7F7F7F7F0000240311
:1007E00048066A098C0CAB0FC812E215F9180B1CED
:1007F0001A1F2322282526281F2B112EFB30DF331A
:10080000BA368C39563C173FCE417A441C47B4491E
:100810003F4CBF4E33519B53F5554258825AB35CFF
:10082000D75EEB60F162E864CF66A6686D6A236C00
:10083000C96D5E6FE2705472B573047541766B7763
:10084000847889797C7A5C7B297CE37C897D1D7E38
:100850009C7E097F617FA67FD87FF57FFE7FD5F0E4
:100860008D14A1C881CFD9F1AF2000080B0002027E
:10087000020000090400000102020000052400102B
:1008800001052401010104240206052406000107D4
:1008900005810310004009040100020A000000075E
:1008A000050202400000070583024000000403091E
:1008B0000412010002EF02014041233680000101D1
:1008C00002030141726475696E6F204C4C43004114
:1008D000726475626F7900009E2911241FBECFEFEC
:1008E000DAE0DEBFCDBF11E0A0E0B1E0E6ECF7E575
:1008F00002C005900D92AC32B107D9F729E0ACE205
:10090000B1E001C01D92A03CB207E1F714E0CDE6D2
:10091000D4E004C02197FE010E94D42BCC36D1072D
:10092000C9F70E94C3290C94E12B6ACB80918703FD
:100930000895E1E0F0E010D0319728F068517C4F45
:100940008F4F9F4FF9CFAB01FC0106D0641775079D
:100950008E079F07D0F30895AEE2B1E02FB7F89469
:100960007D918D919C9166B52FBFA89B05C06F3F6F
:1009700018F47F5F8F4F9F4F22E0660F771F881F0D
:10098000991F2A95D1F7089565E070E080E090E026
:10099000AB01FC01E1DF41505109E109F10928F007
:1009A00068517C4F8F4F9F4FF6CFAB01FC01D4DFD6
:1009B000641775078E079F07D0F30895FC01809197
:1009C000B907882311F13FB7F89482E08093E900DA
:1009D0002091F200822F90E01816190614F481E09D
:1009E00090E0882339F0289844E64093B807409176
:1009F000F1004083222339F02091F200211103C03D
:100A00002BE62093E8003FBF08958FEF9FEF0895F6
:100A10002FB7F89483E08093E9009091E800892F44
:100A2000807295FF04C09091F20080E4891B2FBF73
:100A300008958091B00781110DC082E08093AC07CA
:100A400084E08093AD071092AF071092AE0781E06B
:100A50008093B0078CEA97E00895B0E0A0E0E3E36C
:100A6000F5E00C94A32B6C017B018A0180910B01B2
:100A7000882309F456C08091B907882309F451C02E
:100A80008091AB0780FF05C08091E0008260809379
:100A9000E000E801B12C8AEFA82E93E0892E2AE32A
:100AA000922E209711F4BB20A9F1B2DF811105C06D
:100AB000AA94AA20B1F13DDFF4CF8C171D0611F0E6
:100AC0000CF08C2F9FB7F8948092E9002091E800F9
:100AD00025FD02C09FBFE5CF282F30E0C21BD30BFE
:100AE000F701815020F041914093F100FACFE20EDE
:100AF000F31EBB2021F09092E800B12CEBCF809147
:100B0000E80085FDE7CF9092E800BB24B3942097DE
:100B100009F3F3CF5D9884E68093AA0710161106B7
:100B20003CF081E090E0F6019383828310E000E0E6
:100B3000C801CDB7DEB7ECE00C94BF2BA1E0B0E06C
:100B4000E4EAF5E00C94AD2B6983DC01ED91FC91B6
:100B50000280F381E02D41E050E0BE016F5F7F4FE6
:100B600009952196E2E00C94C92B83E08093E9007B
:100B70008091F200882319F08AE38093E8000895B9
:100B800047DF90E00895A1E0B0E0E9ECF5E00C94D7
:100B9000AD2BFC018485958597FD08C02FEF3FEFB5
:100BA000358724872196E2E00C94C92BCE0101966B
:100BB00005DF019719F4898190E0F4CF8FEF9FEF63
:100BC000F1CFA1E0B0E0E7EEF5E00C94AB2B8C01A7
:100BD000FC018485958597FF0AC0CE010196EEDE63
:100BE000019761F4898190E0F80195878487F80185
:100BF000848595852196E4E00C94C72B8FEF9FEFB9
:100C0000F3CFFC018485958597FD0BC09FB7F894C1
:100C100082E08093E9008091F2009FBF90E001960E
:100C200008959FB7F89482E08093E9008091F200E4
:100C30009FBF90E008954091A6075091A70720918B
:100C4000A4073091A50742175307B4F49091E80028
:100C50009570E1F39091E80092FD19C08093F10046
:100C60008091A6079091A70701968F739927892BEA
:100C700019F48EEF8093E8008091A6079091A70762
:100C800001969093A7078093A60781E0089580E0DE
:100C90000895EF92FF920F931F93CF93DF93F82E57
:100CA000192FE62E042F81E0860F880FC4DF83E022
:100CB000C2DFCF2DD12FEC0EFD2EF11CCE15DF059E
:100CC00099F007FF0FC0FE018491B5DF182F80E077
:100CD000B2DF812321968111F1CFCDB7DEB7E6E0F7
:100CE0000C94C52B8881F1CF81E0F7CFB0E0A0E074
:100CF000ECE7F6E00C94A82BD82E8A01EB017B01DF
:100D0000E40EF51ECE15DF0551F0D7FE0EC0FE0134
:100D1000849191DF21968111F5CF0FEF1FEFC8016C
:100D2000CDB7DEB7E7E00C94C42B8881F2CFA1E009
:100D3000B0E0EDE9F6E00C94AB2B82E0898342E46D
:100D400050E06BE678E080E8D1DF73DEDC011296DC
:100D50000D911C910115110589F0D801ED91FC91BF
:100D60000280F381E02DBE016F5F7F4FC8010995BE
:100D700097FD04C0F80100851185ECCF898121968B
:100D8000E4E00C94C72B615030F02091F100FC019D
:100D900020830196F8CF289884E68093B8070895B9
:100DA0008FB18095807F669B88601C9B84600895CE
:100DB000109287033E983F9808953E9A3F9A81E0AB
:100DC00080938703089520918003E0917E03F09142
:100DD0007F03CF01029690937F0380937E032223AB
:100DE00019F0859194910895808191810895CF9211
:100DF000DF92EF92FF92CF93DF93E5DF811520E83A
:100E0000920791F4809171008D7F80937100109210
:100E100091004698479810927D03DF91CF91FF9003
:100E2000EF90DF90CF90089521E020937D038130F3
:100E300020E8920749F480917B0390917C03909382
:100E40007F0380937E03BFDF97FD05C020917A0367
:100E5000222309F453C02091790321114FC021E0CE
:100E600020938103EC01DF77209709F04AC081E0ED
:100E70008093820346983FE9C32E3FE0D32EE12CB6
:100E8000F12CCAEFD0E0E091BE09F091BF090995BD
:100E9000811103C081E080938203809181038823C4
:100EA00029F080918203882309F43EC047988BDFA4
:100EB0000097F1F19C01DE010E94792BDC01CB014E
:100EC00029E0B595A795979587952A95D1F7109222
:100ED00090002AE020939100D0929900C09298004F
:100EE0008093830390938403A0938503B093860338
:100EF000809171008260809371008FCF1092810386
:100F0000B1CF9E0150E040E060E472E48FE090E0F9
:100F10000E94312B69017A0181E0C81AD108E108E9
:100F2000F10810928203AFCF4699C0CF479ABFCF46
:100F30008FEF9FEFDC01CBCF9C01E1E7F0E09081E8
:100F40009D7F908310928003E0EBF9E0F0937F03A4
:100F5000E0937E03F0937C03E0937B033183208353
:100F60007383628380E090E89583848340CF089503
:100F7000482FE82FEF7386FF03C080E48E1BE82F15
:100F8000F0E0EE0FFF1FE452F84F8591949147FF78
:100F900003C09195819591090895E82FEF7386FF1D
:100FA00003C090E49E1BE92FF0E0E556F84FE49172
:100FB00087FDE1958E2F0895E9EEF1E067E272E09A
:100FC0002FEF3FEF81918327982F92959F7089276C
:100FD000482F50E0922F9A01322F22273295307FEE
:100FE000822793279A01B5E0220F331FBA95E1F7C4
:100FF000282739276E177F0729F7C9010895EF922F
:10100000FF920F931F93A62FB0E0AA0FBB1FA95FFB
:10101000BB4FE42FF0E0EE0FFF1FE95FFB4F4D9158
:101020005C9160817181460F571FE82FF0E0EE0F51
:10103000FF1FE95FFB4F80819181480F591F80910D
:10104000CA079091CB07DC01A01BB10BB7FF03C00F
:10105000B195A195B109BC016E197F0977FF03C055
:101060007195619571096A177B070CF4DB01821B8E
:10107000930B97FF03C09195819591098A179B0760
:101080000CF4DC019D010E94912B24E0880F991F34
:101090002A95E1F7840F951F1F910F91FF90EF9014
:1010A0000895E3EAF3E0119287E0E33AF807D9F70D
:1010B000089520E0AC01D703C0014E03821F312DFB
:1010C0005603000C111C920B300D811D921F7403EE
:1010D000000C111C920B300D811D921F11240895DC
:1010E000A9E0B0E0E6E7F8E00C949D2B7C012983B1
:1010F0003A834B835C836D837E830987E8ECF7E05A
:10110000A980BA8080819181A81AB90ACB80DC803D
:1011100082819381C81AD90A0D811E8184819581AB
:10112000081B190B8985682E712C230192E3490E47
:10113000511CF201EE0FFF1FF887EF83ED55FC4FB6
:101140009501D5010E94912B1B012C019601D6011E
:101150000E94912B260E371E481E591E9801D80159
:101160000E94912B620D731D841D951D91838083B8
:10117000F70160817181C5019CDF4C01F70162813B
:101180007381C60196DF880E991EF701648175810F
:10119000C8018FDF1401280E391EF701668177819F
:1011A000C50187DF4C01F70160857185C60181DFCC
:1011B000880E991EF70162857385C8017ADF880E53
:1011C000991EF70164857585C50173DF5C01F70120
:1011D00066857785C6016DDFA80EB91EF7016089A7
:1011E0007189C80166DFF301EE0FFF1FEE0FFF1FCD
:1011F000E751FE4F3182208293828282EF81F8850F
:10120000E155FA4FA80EB91EB194A194B108B1826C
:10121000A08289858F5F2996E2E10C94B92B9C010D
:10122000B603C0016203000C111C00249009810D5B
:101230001124911D08959C01369FC001279F800DA8
:10124000911D379F900D269F810D1124911D0895AA
:101250009C013603C0017203800D911D379F900DD4
:10126000269F810D1124911D08959C013603C00114
:10127000729F800D911D379F900D269F810D112427
:10128000911D08959C013603C001269F810D1124F4
:10129000911D0895EF92FF920F931F93CF93DF93C9
:1012A000EC018D2F65DE8C0181E08D0F61DE7C010C
:1012B00060E071E06C1B7109C801D7DF8C016C2FF5
:1012C000C701E0DF800F911FCDB7DEB7E6E00C94D9
:1012D000C52BACE0B0E0EFE6F9E00C94A02B4F8317
:1012E000588769877A878B879C87CF80D884E984E1
:1012F000FA840B851C85C701F7FE04C0882799274F
:101300008E199F09980117FF04C022273327201B3D
:10131000310B821793070CF4C9019601D7FE04C064
:10132000222733272C193D09821793070CF4C90192
:101330008F3F9105B1F0ACF0D7FE03C02FEFC21A7A
:10134000D20AD594C794F7FE03C03FEFE31AF30A1D
:10135000F594E79417FF02C00F5F1F4F159507958F
:10136000CACFB601C60174DF4C01B701C70170DFF7
:10137000880E991EB801C8016BDF880E991E38E0EF
:10138000532EA12CBB24B39450E8652E772473947C
:10139000B501C50150DFBC01C4014DDF96958795AD
:1013A000B5019301281B390BC90145DF5C015A9433
:1013B0005110EECFBC01C60158DFD82EC92EB501A1
:1013C000C70153DFF82EE92EB501C8014EDF2D2DE0
:1013D0003C2D4F2D5E2DBC0180E090E02C96EFE07F
:1013E0000C94BC2BACE0B0E0E8EFF9E00C94A12B3E
:1013F0008C012F83388749875A876B877C87AF801A
:10140000B884C984DA84EB84FC84FC016081C50162
:1014100006DF3C01F8016181C60101DF680E791E1B
:10142000F8016281C701FBDE680E791EF801638155
:10143000C501F5DE4C01F8016481C601F0DE880EBD
:10144000991EF8016581C701EADE880E991EF80130
:101450006681C501E4DE5C01F8016781C601DFDE5B
:10146000A80EB91EF8016085C701D9DE7A826982AB
:101470009C828B828A0D9B1D9E838D83262D3A81B3
:10148000482D5C81682F7E8180E090E02C96EEE014
:101490000C94BD2BEF92FF920F931F93CF93DF938A
:1014A000DC0180E8689FB00111246D557C4F30E06D
:1014B000F02EF40E015010E00F5F1F4FFD01942F2E
:1014C000549197FD06C0EB01C90FD11DE11011C069
:1014D000588331969F5F9F11F3CFA00FB11F3F5FDD
:1014E00060587F4F2313EACFCDB7DEB7E6E00C9408
:1014F000C52B8881852B8883ECCFEF920F9323E057
:10150000829FC0011124EE24E39403E021E08B5874
:10151000984FC0DF0F91EF900895FF920F931F93A4
:10152000CF93DF93D62FC42F8C01083E83E018079A
:1015300010F007EE13E080E00436110520F00456A9
:1015400011098F5FF9CFF12C0A30110520F00A50F4
:101550001109F394F9CF882391F04C2F6D2FCDDF33
:1015600044E04C0F6D2F8F2DC8DF48E04C0F6D2FDE
:10157000802FC3DFCDB7DEB7E5E00C94C62B44E087
:10158000FF20A1F342E04C0F6D2F8F2DB6DF46E018
:10159000EDCF1F93CF93DF93162FD42FC82F843610
:1015A00008F0C3E680E0CA3018F0CA508F5FFBCF66
:1015B00042E0882321F04D2F612F9FDF44E04D0F43
:1015C000612F8C2F9ADFDF91CF911F910895EDE766
:1015D000F1E080E081938F5F8436E1F70895E0DBEE
:1015E00060917C016095682380937C019091E1017A
:1015F0009F5F9093E101E0917B01F0E0EE0FFF1F10
:10160000E15AF84F25913491F90109950895809197
:101610009E0390919F032091A0033091A103E0913C
:10162000E401F091E5016091E6017091E7014091DC
:101630009C0350919D03A091E201B091E3014A1BEC
:101640005B0B57FF03C05195419551094F3F510521
:1016500009F0BCF48E1B9F0B97FF03C091958195F9
:1016600091098F3F910509F064F4261B370B37FF72
:1016700003C031952195310981E02F3F310511F0EB
:101680000CF080E0089586E0E6E9F3E0A2EEB1E038
:1016900001900D928A95E1F786E0E0E4F1E0DF0148
:1016A000982F1D929A95E9F7EAE3F1E0DF011D9288
:1016B0008A95E9F708958093A307E5DF1092E10189
:1016C00010927A011092790110924D0110924C0102
:1016D00080E28093350180E090E190935101809306
:1016E000500181E080937B0108956091E80183E0DF
:1016F000689FB001112466537C4FFB012491319601
:1017000094916E5F7F4FFB01649170E080E0862FC3
:1017100077276627792B622B0895CF93C82FE5DFB3
:101720009B01482F8C2F90E0982F8827990F990FB5
:10173000092E000CAA0B9F5FAF4FBC018A2F620FCE
:10174000731F841FCF9108958032B9F0E82FEE0FF8
:10175000FF0BE253FD4F85919491292F26952695F5
:101760002F7149F425E0969587952A95E1F78F71B9
:1017700021F481E0089583E0089582E008950F93B5
:101780001F93CF938C01C0E0F80181918F018823D2
:1017900041F0803211F4CD5FF7CFD6DFCF5FC80FB5
:1017A000F3CFC111C1508C2FCF911F910F9108958C
:1017B00087FD1BC060347105C0F4FB0194E0EE0F9F
:1017C000FF1F9A95E1F7E078F370E80FF11DED55F2
:1017D000FC4F6770772781E090E001C0880F6A9521
:1017E000EAF780959081892380830895CF934617E7
:1017F00057070CF438C057FD36C0603471059CF5AE
:1018000087FD31C077FF02C070E060E0C62F4F3324
:10181000510514F04FE350E0C87F942F987F677014
:10182000772762507F4FFB016491FA01E770FF2731
:10183000EA50FF4F4491E82FF0E080FF232F80E132
:10184000C89FD0011124AE0FBF1FAD55BC4F3C91B6
:10185000C9130BC0E62FE4239E2F9095922BE22311
:10186000E32BE923EC93CF910895862F8095582F91
:10187000522BE62FE2238E2F832B85238C93A058A7
:10188000BF4F892F8C1B8850181624F42C93A05816
:10189000BF4FF9CF6C91E42FE0958E2F822BE42F70
:1018A000E223E62BE823DECFA8E0B0E0EAE5FCE0A7
:1018B0000C949D2B4C0178876F835A01DC82CB827C
:1018C0004617570764F0E016F1064CF09E2D8F2D59
:1018D0007801092F182F8B2D5B014F838887A90171
:1018E000481959095A83498327014A185B0857FE4A
:1018F00003C051944194510818016F817885261ACC
:10190000370A37FE03C03194219431086A2D67707D
:101910008F818770EA14FB0414F461956770EF817E
:10192000F8850E171F0714F481958770482D4770AE
:101930004450042E000C550B6850770BE981FA8156
:101940006E9F30016F9F700C7E9F700C1124449E1F
:10195000B001459E700D549E700D1124661A770AD1
:101960007594679475946794759467948850990BEF
:101970008E9F60018F9FD00C9E9FD00C1124249EBF
:10198000C001259E900D349E900D1124C81AD90ACD
:10199000D594C794D594C794D594C7949FEFAE14AB
:1019A000BF040CF491E04F8158858FEF4017510729
:1019B0000CF481E0EA14FB041CF451E0A51AB10810
:1019C0006F8178850617170724F4615071097887AD
:1019D0006F839594879495948794959487942D5FBD
:1019E0003F4F7901F594E794F594E794F594E794E3
:1019F000B594A794B594A794B594A794EF81F8856E
:101A0000F595E795F595E795F595E795F887EF83D3
:101A1000292F990F330B3E832D83082F880F110B2D
:101A2000E814F90449F1161417044CF44D815E8151
:101A3000A40EB51E69817A81661A770AF4CF1C1448
:101A40001D045CF48F819885800F911F98878F8388
:101A5000E981FA81CE1ADF0AF2CF2B813C814F81D6
:101A60005885B501882DC2DEFFEF8F1A9F0A640CDE
:101A7000751CC20CD31CD4CF2896E2E10C94B92B70
:101A8000A4E0B0E0E6E4FDE00C949D2B7B01EE27A2
:101A9000FF27E41BF50B6E177F070CF481C08C0148
:101AA0008E179F070CF47CC0FA01FC5FE617F7075E
:101AB00008F476C0E817F90708F472C049017B0101
:101AC000F594E794F594E794F594E79415950795C4
:101AD000159507951595079583E0569547958A9531
:101AE000E1F728EF24031001259F300C112488E032
:101AF000280E311CCA01880F991F880F991F25E0F5
:101B000030E05901A81AB90A5C834B83D12CC12C4F
:101B10008CE090E09A83898394016B807C80600ED6
:101B2000711EA30128018B819C81481A590AB201B8
:101B30008E2D8C0D5BDE9401A301B2018E2D8C19CC
:101B400055DE94013601600E711EA30128014C1868
:101B50005D08B2018B818E0D49DE9401A301B201B3
:101B60008E2D9B81891B42DEB7FC0AC0A20CB31CE0
:101B700088E0280E311C8B819C8101979C838B838C
:101B800089819A81A80EB91E08969A8389839FEF4E
:101B9000C91AD90A8B819C818C159D050CF0BCCF8C
:101BA0002496E2E10C94B92BE62FE770F0E0E251C5
:101BB000FF4FE49166956695669590E8699FD00120
:101BC0001124A80FB11DAD55BC4F8C91E827EC93A3
:101BD0000895A3E0B0E0EFEEFDE00C94A42B182FE5
:101BE000F62EE42FEE0FFF0BE253FD4F25913491BB
:101BF000822F8F718983C90145E0969587954A9513
:101C0000E1F78F718A83932F969596959F719B83A9
:101C100003E0911104C002E0811101C001E0CE0196
:101C200001965C01902E910EF50181915F01EF2CE0
:101C3000882361F0C82ED12C80FF03C06E2D812F28
:101C4000B3DFE394C60195958795F2CF1F5F191115
:101C5000EBCF802F2396EBE00C94C02B0F931F93B8
:101C6000CF93DF93C82FD62F8A01F80141918F01BE
:101C7000442351F0403211F4CD5FF7CF6D2F8C2FFC
:101C8000A8DFCF5FC80FF1CFDF91CF911F910F91E8
:101C90000895E62FE770F0E0E251FF4FE49166957A
:101CA0006695669590E8699FD0011124A80FB11D33
:101CB000AD55BC4F8C91E82BEC930895B0E0A0E0BB
:101CC000E4E6FEE00C94A32B00916401601708F099
:101CD00085C0061B0A3008F009E0842EF62EC82FB6
:101CE000182F110F110F110FDAE00D9FD02D1124B5
:101CF0009EE0C92ECD0EE12CD82CDE0C69E0610FE0
:101D00008D2DC7DF61E1610F8D2DC3DF69E1610FAB
:101D10008D2DBFDFE394E394CE1470F7EC2FF0E049
:101D20003196F695FE2FEE27F795E795E80DF11D14
:101D3000AF014D555C4F90E0DA01A90FB11D9D0137
:101D400020583F4F8AEAF90180838C93965FD91718
:101D500098F7FA01ED0FF11DDF01A257BF4F8C93E9
:101D60008687839483948F2D90E09C012E5A3E4F5A
:101D70005901182DEE24E394D12CC12C912C0E1571
:101D8000F8F0412F6C2F8E2D8F0D03DCF501819122
:101D90005F01C80ED11C882381F0412F62E06C0FD7
:101DA000F8DBEFEFEF0DEE0DF0E0EC59FE4F818127
:101DB000980E412F61E06C0FECDBE394165FDFCFF0
:101DC000992061F0D80D61E06C0F4D2F892D90E0C6
:101DD000A4DB62E06C0F4D2FC6019FDBCDB7DEB7F1
:101DE000ECE00C94BF2B0F931F93492F50E0440F4E
:101DF000551F4A5F5E4FFA0125913491FA013296E0
:101E0000A591B491482F4095349FB001249F610D56
:101E10001124711DB89FA001A89F410D1124511DCF
:101E2000460F571F232F3327FA01E20FF31F9F019D
:101E3000DC010E94792B072F182F292F332780E0F0
:101E400090E0A2E0801B910BA20B9C014A2F50E076
:101E5000DF010E944D2B1F910F910895B0E0A0E08B
:101E6000E4E3FFE00C94A52B5C01E90184179507DE
:101E700039F1D801A21BB30B201731071CF0D9018F
:101E8000A01BB10B9B012A193B090E94792B6B0106
:101E90007C01CA018A199B098F3F9105B9F0B0F006
:101EA000A2DF55274F2D3E2D2D2DDC010E944D2BFD
:101EB0000C171D071CF4919581959109C80FD91F26
:101EC000CE01CDB7DEB7EAE00C94C12BFC01EE0FDA
:101ED000FF1FEA5FFE4FA591B491A7019601E6CFDF
:101EE000B0E0A0E0E6E7FFE00C949F2B4B015C0123
:101EF000EA01280139019B01A70160E071E0CE01F0
:101F0000ADDF6C0183019501A70160E071E0CE01B6
:101F1000A5DFB601CDB7DEB7E0E10C94BB2BAAE09C
:101F2000B0E0E5E9FFE00C949D2B4C012A0118017B
:101F3000B42FA52F4817590714F4B82FA92FEB2F4A
:101F4000FA2FE215F3050CF4F801F7FDD9C0B42F10
:101F5000A52F8414950414F4B82FA92FEB2FFA2F72
:101F60002E163F060CF4F801E130F2400CF0C8C028
:101F70005B013A8729873701261737070CF0E4C041
:101F8000E616F7060CF0C0C02C014A017A87698773
:101F900059016A147B040CF4BFC0782D692D9A2D69
:101FA0008B2D48015701120169847A842401BA8675
:101FB000A986872E962EA92EB82E77FCA1C0A11433
:101FC000F4E0BF060CF09CC0A614B70409F498C056
:101FD00081019401A30169857A85C5013FDF898369
:101FE0009A83EC2DF0E0EE0FFF1FEA5FFC4F259186
:101FF00034913E832D83B7FE9DC0820194014985B3
:102000005A8570E060E0C50129DF7C0109811A81F1
:10201000940149855A8570E060E0C5011FDF8B831C
:102020009C834701B12CA12C89859A858130A4E03D
:102030009A070CF482C082019401AC0160E074E064
:10204000C5010CDF8F83988709811A812B813C8120
:1020500049855A8560E074E0C50100DF20E034E086
:10206000A216B30654F4CD80DE807C010F81188562
:102070004B815C81B401C50117DCE985FA85F7FF66
:1020800014C081019201A30170E060E0CF01E6DE9F
:102090002C0129813A81A30170E060E089859A854D
:1020A000DDDE89839A831A861986C101F1E06F16F5
:1020B000F4E07F06ACF081019201A30160E074E0DE
:1020C00089859A85CBDE7C0129813A81A30160E074
:1020D00074E089859A85C2DE1701612C24E0722E96
:1020E00029853A85261537055CF4CD80DE807C0194
:1020F0008101930149815A81B20189859A85D4DB96
:102100002A96E2E10C94B92B742F652F922F832F1E
:102110002801FA86E98647CF982D892D48011201BA
:10212000492E582E9A2D8B2D570169847A849987D0
:102130008A8743CF8B829C8277CF89819A814F8215
:10214000588629853A858CCF89859A85E816F906BF
:102150000CF41FCF32CFA6E3B0E0E1EBF0E10C943A
:102160009D2BE090BC07F090BD070091BA0710913D
:10217000BB07C8018FD86C01C801905C8BD88C015B
:10218000C70188D85C01C701905C84D87C019A8320
:1021900089831C821B82BE82AD82B501C6010E946A
:1021A000590898878F831A870987B701C6010E944B
:1021B00059089195819591099C878B87B501C80134
:1021C0000E9459089195819591099E878D87D88A9B
:1021D000CF86B701C8010E9459089A8B898B17DAFC
:1021E0008CA78111DBC100E02091E2013091E30175
:1021F0004091E4015091E5016091E6017091E701A1
:10220000CE0101960E947008582E2091130630913D
:1022100014062F3F310509F00CF4C4C14091E901C7
:102220005091EA016091EB017091EC01CA01409379
:10223000ED015093EE016093EF017093F00180582F
:102240009F4F9093EE018093ED01309316062093FB
:102250001506809107049091080490930A048093D6
:1022600009042091E4013091E5017901890140E000
:1022700060E080E00E94FF0780579E4F9093E0044B
:102280008093DF048FEF8093D107539401E00CA774
:1022900021E029A360909C0370909D03E0909E0331
:1022A000F0909F03A090A003B090A10347019394E6
:1022B000262D7A8E698E482D9C8E8B8E6A2DBE8E31
:1022C000AD8E052D3A8D5C8D7E8DCE0101960E94DE
:1022D0007008082F282F30E0A901495C5E4F440F99
:1022E000551FFA01ED55FC4F20803180F901EE0FAA
:1022F000FF1FEE0FFF1FEB51FE4F80819181A281E6
:10230000B38160817181CB01C096220F331F220FF0
:10231000331FF901E751FE4F80839183A283B3837A
:102320004B555C4FDA012D923C920F5F6701BBEF7A
:10233000DB1A4C2DDC8ECB8E298D3A8D5C8D6D8D0C
:102340007E8DCE0101960E947008482E90E0DC013F
:10235000A95CBE4FAA0FBB1FFD01ED55FC4F0081CC
:10236000118131E0EFEF2E16310409F00CF430E06A
:1023700021E00F3F110509F00CF420E0332E32224A
:10238000FC01EE0FFF1FEE0FFF1FEB51FE4F4081D0
:1023900051816281738120813181A901405D5F4F4C
:1023A000880F991F880F991FFC01E751FE4F40834A
:1023B000518362837383AB55BC4F0D931C9301E033
:1023C000040DC701995F482F9C8F8B8F298D3A8D03
:1023D0005C8D6D8D7E8DCE0101960E947008082F58
:1023E000E82FF0E0EE0FFF1FEF5EF94F21E0808154
:1023F00091818F3F910509F00CF420E03222809109
:10240000E101880F880F880F0E94CD07680E711CAC
:1024100087FD7A94262D7A8E698EFAEFFF1A4E2D5B
:10242000FC8EEB8E32E0B31A6A2DBE8EAD8E3A8DE5
:102430005C8D7E8DCE0101960E947008782EE82F6B
:10244000F0E0EE0FFF1FEF5EF94F808191818F3F2B
:10245000910509F00CF46BC0332009F468C082E0E8
:10246000682E650C44244394450C49A1A42EB12C3C
:10247000760184019401462D642D852D0E94FF076D
:10248000F501EE0FFF1FE152FB4F91838083F501B1
:10249000EE0FFF1FEE0FFF1FE253F84F50824182F5
:1024A000628244E0242E238253E0352E350CA9A00D
:1024B000A394B12C86019401432D662D842D0E9496
:1024C000FF07F501EE0FFF1FE152FB4F9183808361
:1024D000F501EE0FFF1FEE0FFF1FE253F84F408292
:1024E000618232822382E5E09E2E950C520CA9A0D7
:1024F000A394A394B12C9601492D652D832D0E94A0
:10250000FF07F501EE0FFF1FE152FB4F9183808320
:10251000F501EE0FFF1FEE0FFF1FE253F84F608231
:102520005182928283E0838359A15D5F59A3D72CA6
:1025300010E080918E031817B8F5E12FEE0FA1E09F
:10254000AE0FB0E0A95EBB4F8C91A12FB0E0AD55AE
:10255000BC4F6C91F0E0E95EFB4F408190E4490292
:10256000A0011124242F5C8B4B8BA0E46A02B001E4
:102570001124462F7E8B6D8BB0E48B02C001112499
:10258000682F988F8F8B0D2D3C895E89788DCE01B9
:1025900001960E947008D82E1F5FCBCF1CA619A2EF
:1025A000512C78CE19A276CE8FE893E0E9A1EDA761
:1025B00030E070E020E013E0DC014D91CD01740FBC
:1025C000319FF0011124E951FB4F371708F043C048
:1025D0006081670D5181570D4281470DA62FB0E0F4
:1025E000AA0FBB1FAD5EB94F0D90BC91A02DAF3FA0
:1025F000B10509F0D4F4A52FB0E0AA0FBB1FAD5E62
:10260000B94F0D90BC91A02DAF3FB10509F06CF40E
:10261000A42FB0E0AA0FBB1FAD5EB94F0D90BC91C7
:10262000A02DAF3FB105A1F09CF0FDA404E0F09E09
:10263000D0011124A253B84F6C9311965C9311975B
:1026400012964C93129713962C930F2D0F5F0DA794
:102650003F5F3396BACF2F5F253009F0ADCF29A168
:10266000822F90E09C01220F331F220F331FA901FC
:102670004253584F58A34F8F880F991FDC01A15226
:10268000BB4FBEABADABBDA5BBA7E72DF0E0FAAB32
:10269000E9ABFDA5F9A0FF1608F46BC089EEA82EE2
:1026A00081E0B82E93E1892E96E0992EC12C612C01
:1026B00077247394DC1409F4ABC2F5010081118115
:1026C000E280F380D4018D919D914D018F3F910562
:1026D00009F00CF43DC087DB9C01D8010E94972BC8
:1026E0001B012C01D7010E94972B2114B8E73B0650
:1026F0004104B4EC5B060CF472C22114E8E83E0617
:10270000EFEF4E06EBE35E060CF070C26115F8E7E2
:102710007F078105F4EC9F070CF470C2611508E88F
:1027200070070FEF80070BE390070CF06CC292016B
:1027300081015FE036952795179507955A95D1F752
:10274000EFE09695879577956795EA95D1F77B01A8
:102750001E5FD50111961C930E93C3018E199F091C
:1027600013969C938E931297C394B4E0AB0EB11C56
:10277000A1CFAF8DB8A1BC91B9A7EF8DF8A1F18120
:10278000FAA7AF8DB8A11296CC9012971396BC9170
:10279000BEA7F9A4EF2DF0E0EE0FFF1FED5EF94F9D
:1027A000208131813CA32BA33AA5E32FF0E0EE0F6B
:1027B000FF1FED5EF94F408151815EA34DA36C2C4C
:1027C000712CF301EE0FFF1FED5EF94FA080B18079
:1027D000552453948BA19CA18F3F910511F00CF0CF
:1027E000512CADA1BEA1AF3FB10509F014F468941E
:1027F00051F8BFEFAB16B10409F014F4689452F825
:10280000F30129A93AA9E21BF30BED55FC4F808196
:1028100030E48302700111244AA5842E912CF40126
:1028200089A99AA9E81BF90BED55FC4F008190E4AA
:10283000090280011124A9A52A2E312CF10129A910
:102840003AA9E21BF30BED55FC4F208140E4240232
:10285000900111244C2D6AA58A2F0E94FF079CAB82
:102860008BABADA9BEA98D939D93BEABADAB252D12
:1028700030E0C901019785219323892B09F4C5C054
:10288000B2E6BD1508F47DC0880C991C880C991C13
:10289000F401E751FE4F4F01660C771C660C771C64
:1028A000930127513E4F38A72FA33101660C771CA7
:1028B000660C771CA30147515E4F3A01DA016D9116
:1028C0007D918D919C9150FC65C02080318042802B
:1028D0005380EBA0FCA08B019C014DA15EA1C20125
:1028E000B101FEDA1B012C01F3010081118122816B
:1028F0003381AFA1B8A56D917D918D919C91EBA095
:10290000FCA0A501EDDA2D2D30E0F901EE0FFF1F3F
:10291000EE0FFF1FE751FE4F208231824282538229
:10292000220F331FF901ED5EF94F20E031E03183D2
:10293000208321E02D0D422F50E0FA01EE0FFF1F02
:10294000EE0FFF1FE751FE4F6083718382839383F5
:10295000CA01880F991FFC01ED5EF94F40E051E07C
:1029600051834083E9A5AF8DB8A1EC9311962C93C8
:1029700011971296DC921297FEA51396FC93D394AE
:10298000D39499A19F5F99A3AF8DB8A11496B8A3D2
:10299000AF8F7FCE51FC1DC0008111812281338118
:1029A000EDA0FEA04BA15CA19BDA1B012C01D40180
:1029B0000D911D912D913C91EFA1F8A56081718140
:1029C00082819381EDA0FEA0A5018ADAFAA5F9A77C
:1029D0009ACFAFA1B8A50D911D912D913C91750194
:1029E0004BA15CA17DDA1B012C01EFA1F8A50081B0
:1029F000118122813381D4016D917D918D919C91C2
:102A00004DA15EA16DDAC9A67ECF552009F4B9CFDC
:102A100062E6F62EFD1408F4B4CF0BA5043608F0D8
:102A2000B0CF880C991C880C991C940127513E4FFB
:102A300038A72FA3660C771C660C771CA30147519F
:102A40005E4F58AB4FA74101880C991C880C991C0C
:102A5000C40187519E4F4C0150FE77C0D9010D91A2
:102A60001D912D913C91FC01608171818281938146
:102A7000EDA0FEA04BA15CA133DA2B013C01AFA578
:102A8000B8A90D911D912D913C91F4016081718146
:102A90008281938175014BA15CA122DA2D2D30E05A
:102AA000F901EE0FFF1FEE0FFF1FE751FE4F4082AF
:102AB000518262827382220F331FF901ED5EF94F5A
:102AC00020E031E03183208321E02D0D422F50E0C2
:102AD000FA01EE0FFF1FEE0FFF1FE751FE4F60835D
:102AE000718382839383CA01880F991FFC01ED5E75
:102AF000F94F40E051E051834083AF8DB8A1DC92A3
:102B0000EAA51196EC9311971296CC921297FEA516
:102B10001396FC93FBA4EF2DF0E0DF01AA0FBB1F7F
:102B2000A152BB4F4BA95CA94D935C93EE0FFF1FC5
:102B3000EE0FFF1FE253F84FD082C18222835EA5C1
:102B400053838F2D8F5F8BA71ACFAFA5B8A96D9137
:102B50007D918D919C9151FE23C0EFA1F8A54080FD
:102B600051806280738075018B019C014DA15EA133
:102B7000C301B201B5D92B013C01D4010D911D91C6
:102B80002D913C91EFA1F8A56081718182819381A3
:102B9000EBA0FCA04DA15EA1A3D9CAA6C9A47ECF7B
:102BA000D4010D911D912D913C91EBA0FCA0A501AC
:102BB00097D92B013C01EFA1F8A500811181228159
:102BC0003381AFA5B8A96D917D918D919C91EDA0B8
:102BD000FEA0A50185D9CAA4B9A5BAA75FCF212CAB
:102BE000A8E73A2E412CA4EC5A2E90CD212CF8E8DF
:102BF0003F2E44244A94FBE35F2E88CD60E078E7C3
:102C000080E094EC94CD60E078E88FEF9BE38FCD8B
:102C10000E94E70A8EE791E021E0EBA52E1750F520
:102C2000DC013D91CD01E32FF0E0EE0FFF1FE152FB
:102C3000FB4F60817181E22F4E2F50E043585E4F71
:102C4000DA011197FC91AF2FB0E0AA0FBB1FA15280
:102C5000BB4F0D90BC91A02DA617B70730F0F0E048
:102C6000E358FE4F30832F5FD8CFDA01FC93E15059
:102C700019F7F5CF0E9451083DE7832E31E0932EDE
:102C8000D12CB12CA12CBBA5BD1509F44DC0D4018C
:102C9000ED914D01B4E0EB9FF0011124E253F84FA8
:102CA000C380FF24FA94CF101CC00CA50023B9F0F8
:102CB000A090ED01B090EE018091E9019091EA01C0
:102CC000A81AB90A6091E9017091EA018091EB01BB
:102CD0009091EC012FEF3FEFA5010E94400DD3949E
:102CE000D2CFA28124E0A29FD0011124A751BE4FD0
:102CF000ED90FD900D911C91A18134E0A39FD00136
:102D00001124A751BE4F2D913D914D915C91E081D1
:102D100084E0E89FF0011124E751FE4F608171814A
:102D200082819381FCD8DBCF9CA5992309F49AC0BA
:102D300085010C5F1F4FE090E901F090EA018827C0
:102D40009927801B910BE816F9060CF48BC0C090F4
:102D5000EB01D090EC01C816D9060CF483C0A4E0B6
:102D6000AA0EBA1EAE14BF0408F47CC0AC14BD0495
:102D700008F478C0F594E794F594E794F594E79413
:102D8000D594C794D594C794D594C79483E01695E9
:102D900007958A95E1F728EF20031001219F300C59
:102DA0001124B8E02B0E311CC801880F991F880F21
:102DB000991F25E030E04901881A990AECE0F0E01B
:102DC000FAA3E9A3B12CA12C3601601A710AB30150
:102DD000FA2DFE0DFF8F8F2F0E94D80B2601400E7B
:102DE000511EB2018F8D0E94D80BB3017E2C7A1830
:102DF000872D0E94D80BB201872D0E94D80B360177
:102E00006A187B08B301202F2E0D2F8F822F0E946E
:102E1000D80B25014C0C5D1CB2018F8D0E94D80B84
:102E2000B3017E2C701A872D0E94D80BB201872D1A
:102E30000E94D80B97FC07C0820C931C38E0230E2D
:102E4000311C0150110949A15AA1840E951E485FF9
:102E50005F4F5AA349A35FEFA51AB50A0A151B05D0
:102E60000CF0B2CF8BA5E696E2E10C94B92BFF9261
:102E70000F931F93CF93DF9380919C0390919D03B9
:102E80002091E2013091E301821B930B0091A0039A
:102E90001091A1032091E6013091E701021B130B71
:102EA000F12C17FF05C0119501951109FF24F3942A
:102EB00097FF05C06894F1F8919581959109801765
:102EC00091073CF46894F2F8302F212F8C01832F66
:102ED000922F8F3F910511F00CF04EC0FC01EE0FC8
:102EE000FF1FEA5FFE4F25913491D8010E94972B76
:102EF000DC01CB0153E0B695A795979587955A9538
:102F0000D1F7182FC92F40E0D42FFE01EE0FFF1F7D
:102F1000E455FF4F85919491FE01EE0FFF1FE2559E
:102F2000FF4FC591D49160E071E0611B71090E946F
:102F30001B09D19F9001C19F210D1124311D820FCA
:102F4000931FF2FE06C020E030E4A901481B590B94
:102F5000CA01F1FE06C020E030E8A901481B590B68
:102F6000CA01F0FE03C0919581959109905CCDB79F
:102F7000DEB7E5E00C94C62B0E94F30E9C01D8014D
:102F80000E94972BDC01CB013BE0B695A795979566
:102F900087953A95D1F7B5CFB0E0A0E0E2EDF7E143
:102FA0000C94A82B7C018B01D22EFC018081918195
:102FB000461B570B57FF02C04D5F5F4F5595479516
:102FC00055954795EA01C81BD90B6D2D0E94420902
:102FD000080F191F6D2DCE010E944209F7012081B3
:102FE0003181820F931F91838083C801CDB7DEB7F3
:102FF000E7E00C94C42BAF92BF92CF92DF92EF9296
:103000000F931F93CF93DF9300D000D000D0CDB7A4
:10301000DEB749835A836B837C838D839E835901FA
:1030200049815A8188ECC82E87E0D82EF60160814C
:10303000718120E48EEB97E0AFDFF601918380830E
:103040004B815C816281738120E480EC97E0A4DF96
:10305000F601938382834D815E816481758120E4D2
:1030600082EC97E099DFF601958384836091BC0739
:103070007091BD072E2DA50184EC97E08DDF909314
:10308000BD078093BC076091BA077091BB072E2DD6
:10309000A80186EC97E080DF9093BB078093BA0786
:1030A00026960FB6F894DEBF0FBECDBFDF91CF914D
:1030B0001F910F91EF90DF90CF90BF90AF90089548
:1030C0000DB407FEFDCF8EB51EBC0895EF92FF92A2
:1030D0000F931F93CF93DF937B018C01D0E0C0E06F
:1030E0002196CE15DF0561F0EBDFF80181938F01AA
:1030F000EC16FD06A8F7CDB7DEB7E6E00C94C52BBD
:103100000DB407FEFDCF8EB5599AF8018083F3CF39
:103110008EBD00000DB407FEFDCF8EB50895599801
:1031200085E0F6DF80E0F4DF80FDFCCF599A08955A
:103130001F93CF93DF93EA01162F5998E9DF812F70
:10314000E7DF8D2FE5DF8C2FE3DFDF91CF911F913C
:103150000895AB01682F00905E09500D00905F0943
:10316000601D83E0E5DF1EBC0895AB01682F009071
:103170008803500D00908903601D83E0D9DF1EBCD9
:1031800008958093E8010E94750BEFDF63E170E022
:1031900084E691E09BDF1092A307089580E0F1DFC1
:1031A00080E00E945B0BE2E5F1E0119281E0E43601
:1031B000F807D9F710927B0186E0ECE0F1E0A8EC8B
:1031C000B7E001900D928A95E1F780E090EE909340
:1031D000BD078093BC0780E09FE09093BB0780937E
:1031E000BA078091770181708093770180E28093A4
:1031F0003401809333018AE280934F011092780169
:10320000089580E0BEDF80E00E945B0BC7CF089589
:1032100059987EDF599A0895CF93DF93EC0186E0A9
:10322000F7DF40915E0950915F094C0F5D1F60E030
:10323000652F542F442782E07BDFC0E0EC2FF0E0C5
:10324000E253F84F808164DF81E08C0FCF3F21F49F
:10325000599ADF91CF910895C82FF0CFCF93DF9384
:10326000EC0186E0D5DF40915E0950915F094C0F7B
:103270005D1F60E0652F542F442780E259DF599A83
:10328000DF91CF9108950F931F93CF936091E80141
:1032900080E4689FB0011124072E000C880B59DFD1
:1032A00060E470E089EE91E011DF39DFA9EEB1E072
:1032B000E3E9F7E0C0E09D9184919813C1E0319675
:1032C00081E0A13FB807B9F70091270210912802C9
:1032D0000E94DC070817190711F4CC2391F046E38C
:1032E00050E06FEF70E081EF91E00E94DA2B1092D6
:1032F0001602109215020E94DC0790932802809318
:103300002702CF911F910F9108951F93CF93DF93C1
:10331000162F862F807A29F08091E8018111815043
:1033200030DF812F807529F08091E80181118F5F56
:1033300028DFA9DFA1EFB1E0E2E5F1E08D9184366D
:1033400008F080E0819361E0E436F607B9F70E9467
:1033500051084CE069E084E00E945E0E30E020E01D
:10336000A3EAB3E0F901ED5DF84F90E0EF01C0583A
:10337000D109888186958695408160E4469FA001A9
:103380001124842B81939F5F903881F72058310955
:1033900021158EEF380721F7E3EAF5E080E09C91F4
:1033A00090649D939081907891938F5F8038B9F766
:1033B0004CE060E081E00E945E0E0E94750BD5DE5D
:1033C00063ED70E089EE91E081DE8CEF91E00E9488
:1033D000BF0BC82FD0E0D595C7954CEF51E060E00A
:1033E00080E48C1B0E942E0E4BE760E088E38C1B70
:1033F0000E94E90D4DE760E08C2F8A5B0E94E90D89
:1034000012FDCCDEDF91CF911F910895B0E0A0E0D6
:10341000ECE0FAE10C94A82B0E94AB10F0907B0139
:1034200086E0F81639F080914F018A3218F48D5FEA
:1034300080934F018FEF8F0D823070F080913401B7
:10344000803218F48F5F8093340180913301803291
:1034500018F48F5F80933301C0914F014C2F419539
:1034600080917701E12C0AE2882309F470C024E0FE
:1034700060E088EE93E00E944A0A44E24C1BEE248E
:10348000E39403E021E060914E0185EE93E00E9419
:103490004A0AC0913401DC2ED194E12C0CE123E0E6
:1034A0004D2D65E08BE097E00E944A0A12E11C1B5B
:1034B000C091A307412F65E081E08C0F0E94C90AEB
:1034C000D0E0FE01EC59FE4F412F66E081810E9461
:1034D000C90A81E0F81240C00BE021E04D2D67E001
:1034E00080E097E00E944A0ACEDEC751DE4F8A8D07
:1034F000412F67E08436B0F1C0913301C530B8F593
:1035000086E08C1BEC2FF0E0E35EFB4F9F013C5FFD
:10351000DF0190E01D929F5F8913FCCF9FEF9183A5
:10352000E058FF4FE217F30799F70DE70C0F809172
:1035300035018695D0E4D81BD034C8F4102F17FD80
:1035400014C06D2F812F0E94490E1F5FF8CF23E01A
:1035500060E082E194E08FCFCE5ADE4F8881412F28
:1035600067E08F5F0E94C90AC7CFDF5FE5CF44E6FF
:103570004C0FE12C08E121E067E08DEC93E00E9424
:103580004A0ACDB7DEB7E7E00C94C42BEF92FF9266
:103590000F931F93CF93DF93EC01E62E142F842F0C
:1035A0000E94CD07082F80E4810F0E94CD07182FBD
:1035B0008E2D0E94CD07F82E80E48E0D0E94CD073F
:1035C00088834F2D84039001112439839403900143
:1035D00011243A831B821C83902F91959D83F19433
:1035E000FE82482F8403900111243F839403C0017D
:1035F00011249887CDB7DEB7E6E00C94C52BABE17C
:10360000B0E0E5E0FBE10C94A12B4E8B5F8B688F63
:10361000798F8A8F9B8F59016E887F88C88CD98C4F
:103620008A8C9B8C412F41956B2D6195CE01019623
:10363000ADDF1B861A861D861C866E2D20E03B851D
:1036400040E05D857F2DCE0101960E94F209288B16
:10365000398B4A8B5B8B6C8B7D8B68897989660D86
:10366000771D2A893B892C0D3D1D8C899D89880DEC
:10367000991D462F7A836983622F3C832B839E8317
:103680008D8390E4E92E95015A817C819E81B3DC83
:103690006B96EEE00C94BD2B8F929F92BF92CF92CF
:1036A000DF92EF92FF920F931F93CF93DF9300D09F
:1036B00000D000D0CDB7DEB7B62E0E94430B2091CC
:1036C000790130917A011A82198280E0682F8B8308
:1036D00084EF8C831E821D82E12C48E2F42E00E7E9
:1036E00017E140E05A8174EF80E09E8188DF80918D
:1036F000790190917A01939590937A018093790161
:103700000E94AB10E12C0CE123E040E061E08BE093
:1037100097E00E944A0A0BE021E040E063E080E08D
:1037200097E00E944A0A0091A30742E161E081E02C
:10373000800F0E94C90A10E0F801EC59FE4F42E1E7
:1037400062E081810E94C90A9EDD980127513E4FA7
:103750006901F901828D843620F442E163E00E9420
:10376000C90AF0907701FF2049F0E12C01E121E046
:103770004AE163E08FEE96E00E944A0A84DDF6019A
:10378000028D0436F0F4109287058EEF8093880541
:10379000E9E8F5E086E692E091938F5F8038D9F70B
:1037A00099EEC92E96E0D92E17E6F6014491FFEF67
:1037B000CF1ADF0A411145C049E763E0802F0E941C
:1037C000C90AE3EAF5E083E296E022E021938E174E
:1037D0009F07D9F7E3E2F6E083EA97E011928E17AC
:1037E0009F07E1F70E94750BC0DC63ED70E089EE86
:1037F00091E06CDC4CEF51E064E280E00E942E0E20
:103800008CE192E00E94BF0B4CE152E064E290E850
:10381000981B892F0E942E0E00E018E08FE2D82E10
:10382000C02E912CEC2DF0E0E45CFD4FE08020E216
:103830002E1594F48E2D0E94A40B8F5F980EC394C6
:10384000F1CF403211F41D5FB0CF6BE1812F0E94A8
:10385000E90D1F5F180FA9CFE12FE90DFF27FF1F0B
:10386000E138F10534F0F6E0DF0E2BE32D15C0F062
:1038700018E0802F90E0FC01E45CFD4F4F01802FA9
:103880000F5F8C1550F4F40141914F016D2D812F84
:103890000E94E90D8F5F180FF2CF1E5FE110C0CFBD
:1038A000E12C05E022E040E066E08FED96E00E942A
:1038B0004A0AB7FE05C08091E8018111815061DCA0
:1038C000B4FE05C08091E80181118F5F5ADCFF20B2
:1038D00021F1B5FE09C08091A307811102C080913A
:1038E000640181508093A307B6FC1CC027C080E010
:1038F00023C0B3FE0EC0FF2041F082E080937B0125
:10390000809377011092780120C080E00E945B0BC9
:103910001CC0B2FE1AC042DC18C08091E1018F7356
:103920008F3361F48091A307209164012150330B00
:1039300082171306E1F28F5F8093A30780917801CD
:103940008830B8F68F5F8093780126960FB6F8948A
:10395000DEBF0FBECDBFDF91CF911F910F91FF90C2
:10396000EF90DF90CF90BF909F908F900895A6E04A
:10397000B0E0EDEBFCE10C94A72BD62E86E0ECE951
:10398000F3E0DE01119601900D928A95E1F7209106
:103990004C0130914D01E12CB4E1FB2E00E717E121
:1039A00049815A816B817C818D819E8128DE809145
:1039B0004C0190914D01939590934D0180934C0152
:1039C0001091E1011F3F11F0D2FE05C085E0809308
:1039D0007B01109278011ADDE091A307F0E0EE5A26
:1039E000FE4F8081813009F04FC01F70173008F002
:1039F00017E0E12FF0E0EE0FFF1FEF54F94F459174
:103A00005491E7EEF5E08491ECE4F6E0E4913E2F8A
:103A1000282F01E316E0A1EBB6E070E060E0F12CA6
:103A2000E12CFB01E851FA4F8491FB01E35BF94F74
:103A3000E491DE2EC82EC601822B932B8E299F295E
:103A40007C01EE0CFF1C8E299F297C01F694E794E3
:103A50008E299F298095F801F0808F21F42EF22283
:103A60008F2981938F01892F80959C918923932F92
:103A70009423892B8D935427452754276F5F7F4FBD
:103A800079016436710521F42696E8E00C94C32B85
:103A90009601C7CFA6E0B0E0E0E5FDE10C94A82BCD
:103AA000D62E0E94430B2091790130917A011A821F
:103AB00019821C821B821E821D82E12C8CE1F82E51
:103AC00000E717E140E05A8160E07C8180E09E8160
:103AD00096DD8091790190917A01939590937A0186
:103AE0008093790180913401882319F0815080936B
:103AF00034018091E1018F3F11F0D2FE05C082E0D8
:103B000080937B011092780181DC2696E7E00C948B
:103B1000C42BA6E0B0E0EFE8FDE10C94A82BD62E74
:103B20002091790130917A011A8219821C821B82BC
:103B30001E821D82E12C8CE1F82E00E717E140E0A7
:103B40005A8160E07C8180E09E8159DD809179011D
:103B500090917A01939590937A0180937901809165
:103B6000E1018F3F11F0D2FE05C082E080937B011E
:103B7000109278014BDC2696E7E00C94C42BA6E06B
:103B8000B0E0E5ECFDE10C94A92B86E0E2EEF1E07B
:103B9000DE01119601900D928A95E1F70091500196
:103BA0001091510120914C0130914D018091E4011F
:103BB0009091E5019E5F682F9C838B83E12C86E0CA
:103BC000F82E49815A817C818D819E8118DD26964F
:103BD000E6E00C94C52BCF93DF93C82FD62FCFDF11
:103BE000C7FF0AC080915001909151018054910902
:103BF0009093510180935001C4FF0AC080915001FD
:103C000090915101805C9F4F90935101809350019E
:103C1000809150019091510197FD11C0811520E2D2
:103C2000920784F49093510180935001D2FF03C016
:103C300082E080937B01EADBDF91CF91089590E0F1
:103C400080E0F0CF80E090E2EDCFCF93C62F97DFFA
:103C50002091770192E0211193E080914F01882318
:103C600019F0835080934F01C2FF03C082E080931C
:103C70007B01C7FF07C080914E01882381F18150ED
:103C800080934E01C4FF07C080914E01891749F10E
:103C90008F5F80934E01C3FF1FC0C0914E0122234E
:103CA00061F0C11109C08091A3070E945B0B82E003
:103CB00080937B0110927801C150C11114C0809192
:103CC0004C0190914D0190937A018093790110926B
:103CD000E10187E080937B0199DBCF910895892FE3
:103CE000CFCF80E0D6CFC13011F488E0F3CFC2301F
:103CF00099F754DAF1CFEF92FF920F931F93CF937E
:103D0000DF93C82FD62F3BDF8091360190E09C01D6
:103D100036952795369527954C2F407609F458C04F
:103D20000296820F931F8F3F910508F059C0809330
:103D30003601C5FF0AC020914C0130914D01281B6E
:103D4000390B30934D0120934C01C6FF0AC02091DE
:103D50004C0130914D01820F931F90934D01809340
:103D60004C01C7FF05C0809135018E5F80933501FE
:103D7000C4FF05C080913501825080933501C09108
:103D80003501C23080F5C2E0C09335018091340125
:103D9000882319F081508093340180913301882366
:103DA00019F0815080933301809178018830F8F4C4
:103DB0008F5F80937801D2FF05C086E080937B01FE
:103DC00010924E0123DBCDB7DEB7E6E00C94C52B95
:103DD0000197821B930B09F0A6CF81E090E0A7CF5B
:103DE0008FEF90E0A4CFC7FFCFCFC0E8CDCFD3FFF8
:103DF000E2CF00914C0110914D01C8010E944A0987
:103E00007C01C801905C0E944A098C0186E0E2EEC8
:103E1000F1E0A6E4B1E001900D928A95E1F76C2FF4
:103E2000C7010E94420990934101809340016C2F89
:103E300088279927801B910B0E9442099093450186
:103E40008093440183E080937B0164E670E084EB1F
:103E500090E00E949C07AFCFAEE3B0E0E2E3FFE169
:103E60000C949D2B24E029AB809142019091430159
:103E7000C0974091400150914101411530EC5307EA
:103E80000CF415C3411560E456070CF013C35093AE
:103E90004101409340018115A0EC9A070CF40DC339
:103EA0008115B0E49B070CF00BC390934301809302
:103EB000420120914401309145012115E0EC3E077B
:103EC0000CF401C32115F0E43F070CF0FFC230935E
:103ED00045012093440140585F4F6091E201709189
:103EE000E301650F711D57FD7A957093E3016093AF
:103EF000E20180589F4F4091E4015091E501490F44
:103F0000511D97FD5A955093E5014093E4012058C7
:103F10003F4F8091E6019091E701830F911D37FD9E
:103F20009A959093E7018093E601209195032EAF37
:103F300083E196E099A788A71CA69EADACA59A1729
:103F400009F4D8C2E8A5F9A58381C090E201D09018
:103F5000E301F0E48F02C018D1081124A8A5B9A587
:103F600014968C91E090E401F090E501B0E48B02AE
:103F7000E018F1081124E8A5F9A595810091E60162
:103F80001091E701F0E49F02001911091124A8A57E
:103F9000B9A516966C91169717964C91611102C0AF
:103FA0004423C9F1CE010196F1DA6981C6010E946C
:103FB0000F095C016C81C7010E940F09A80EB91E90
:103FC0006F81C8010E940F09A80EB91E6A81C6013F
:103FD0000E940F094C016D81C7010E940F09880ED4
:103FE000991E6885C8010E940F09880E991E6B8171
:103FF000C6010E940F096C016E81C7010E940F0962
:10400000C80ED91E6985C8010E940F098601080FD4
:10401000191F74016501A8A5B9A5EC91B0E1EB9F4A
:10402000F0011124A8A5B9A511964C91B0E14B9FC0
:10403000A0011124A8A5B9A512966C90B0E16B9EC1
:1040400030011124442455244E1A5F0ADF01AC0DBF
:10405000BD1DC414D5044CF0812C912C5401EC15D9
:10406000FD0544F4D601AE1BBF0B9D010E94912BB0
:104070004B015C0122243324241A350ADA01AE0DE7
:10408000BF1DE214F30434F04E155F0554F4D7015C
:10409000A41BB50B9D010E94912B860E971EA81E96
:1040A000B91E22273327261937093BA72AA7D30190
:1040B000A00FB11F0217130734F06016710654F4F5
:1040C000D801A619B7099D010E94912B860E971E53
:1040D000A81EB91E31E0831630E49306A104B10492
:1040E00008F0DBC13C2D2D2DC414D50414F4342D5F
:1040F000252D832F922FE817F9070CF4CF01C81A4A
:10410000D90ADBA2CAA23E2D2F2DE214F30414F427
:10411000322D232D832F922F481759070CF4CA01F3
:10412000E81AF90AFDA2ECA2302F212FEAA5FBA57F
:104130000E171F0714F43AA52BA5832F922F68168C
:1041400079060CF4C3019801281B390BC9013FA360
:104150002EA34AA15BA16CA17DA19FA10E94690928
:104160002AA33BA34CA35DA36EA37FA3A8A5B9A5D7
:1041700016968C9116978111ACC117968C9181116E
:10418000A8C12AA03BA04CA05DA00EA11FA1A09099
:104190004201B0904301C0904401D0904501B1016B
:1041A00080914001909141010E9428097C01B20157
:1041B000C5010E942809E80EF91EB801C6010E9437
:1041C0002809E80EF91E1E141F040CF466C1E11440
:1041D000BCEFFB0634F462E370E088E790E00E94F5
:1041E0009C07E0914001F0914101FBA7EAA7B101D2
:1041F000C7010E942809AAA4BBA4A81AB90A209141
:104200004201309143013EA72DA7B201C7010E9490
:104210002809CDA4DEA4C81AD90A8091440190913E
:10422000450198AB8FA7B801C7010E9428094A2D04
:10423000BD8EAC8E6C2DDF8ECE8EAFA5B8A9A81B1F
:10424000B90BCD01B9A3A8A35D8D7F8D99A10E9463
:1042500069092C8F3D8F4E8F5F8F68A379A3EC8DFA
:10426000FD8DF9AFE8AF2E8D3F8D3BAF2AAF88A112
:1042700099A19DAF8CAFA0913A01B0913B01BBAB2E
:10428000AAABE0913C01F0913D01FDABECAB20917C
:104290003E0130913F013FAB2EABB801CF010E94F0
:1042A00028097C01B2018EA99FA90E942809E81A59
:1042B000F90AB1018EA99FA90E9428095C01B801E1
:1042C0008AA99BA90E942809A81AB90AB2018AA939
:1042D0009BA90E9428096C01B1018CA99DA90E948B
:1042E0002809F7FE03C03FEFE31AF30AF594E794B9
:1042F000AAA5BBA5AE19BF097D01B7FE03C0BFEFDC
:10430000AB1ABB0AB594A7948DA49EA48A189B08E7
:10431000C81AD90AD7FE03C0EFEFCE1ADE0AD59429
:10432000C794AFA4B8A8AC18BD08B101C7010E94DA
:1043300028096C01B201C4010E942809C80ED91EC7
:10434000B801C5010E942809C80ED91E68AD79AD13
:10435000C7010E9428097C016AAD7BADC4010E949F
:104360002809E80EF91E6CAD7DADC5010E94280933
:10437000E80EF91EF194E194F10860EC8827992782
:104380008C199D090E9442093C016C187D0865E565
:10439000C7010E9442096C01B101C3010E942809B2
:1043A0004C01B201C3010E9428095C01B801C3019C
:1043B0000E9428097C0168AD79ADC6010E942809D8
:1043C000880E991E6AAD7BADC6010E942809A80E11
:1043D000B91E6CAD7DADC6010E942809E80EF91E1C
:1043E0008AA59BA5880D991D90934101809340015A
:1043F0008DA59EA58A0D9B1D90934301809342013C
:104400008FA598A98E0D9F1D90934501809344011F
:10441000B801C5010E9428096C01B201C7010E94C0
:104420002809C81AD90AB101C7010E9428097C01CC
:10443000B801C4010E942809E81AF90AB201C401AE
:104440000E9428098C01B101C5010E942809CC0CE9
:10445000DD1CCC0CDD1C2AA93BA9C20ED31ED092B8
:104460003B01C0923A01EE0CFF1CEE0CFF1CACA904
:10447000BDA9EA0EFB1EF0923D01E0923C01081B33
:10448000190B000F111F000F111FEEA9FFA90E0F2E
:104490001F1F10933F0100933E01FCA5FF5FFCA787
:1044A00028A539A5285F3F4F39A728A746CD40E06A
:1044B00050ECEDCC40E050E4EACC80E090ECF5CC60
:1044C00080E090E4F2CC20E030EC01CD20E030E45C
:1044D000FECC2AA13BA14CA15DA16EA17FA1CE0182
:1044E00001960E94F2092AA33BA34CA35DA36EA3ED
:1044F0007FA347CE20913A0130913B01032E000C5F
:10450000440B6FEF70E080E00E94882BA82FCB0156
:1045100080589F4FAF4F892F9A2FAA2790933B0126
:1045200080933A0120913C0130913D01032E000C13
:10453000440B6FEF70E080E00E94882BA82FCB0126
:1045400080589F4FAF4F892F9A2FAA2790933D01F4
:1045500080933C0120913E0130913F01032E000CDD
:10456000440B6FEF70E080E00E94882BA82FCB01F6
:1045700080589F4FAF4F892F9A2FAA2790933F01C2
:1045800080933E0139A9315039AB31116DCC809106
:1045900044019091450197FF03C091958195910940
:1045A000209142013091430137FF03C0319521959D
:1045B0003109821793070CF4C90120914001309111
:1045C000410137FF03C031952195310982179307C7
:1045D0000CF4C9018F3F910511F00CF073C080916C
:1045E00039018F5F809339010091A30710E080911A
:1045F0003701909138010E5A1E4F8830974008F0CD
:1046000064C0809139018E3108F05FC0D801FC9000
:104610008091E4019091E50181159C4E0CF0CDC094
:1046200086E0E6E4F1E0A2EEB1E001900D928A9519
:10463000E1F786E0E0E4F1E0DF01282F1D922A9502
:10464000E9F7EAE3F1E0DF011D928A95E9F7F394D7
:10465000F394F801F08282E080937B0180917100F5
:104660008D7F809371001092800380EB99E090938E
:104670007F0380937E0390937C0380937B038CE283
:1046800091E09093B1098093B00984E690E0909313
:10469000B3098093B20924EB30E03093B50920933D
:1046A000B4099093B7098093B60928E730E03093B6
:1046B000B9092093B8099093BB098093BA090E9465
:1046C000F7061DC0109239018FCF10923801109259
:1046D00037011092390186E0E0E4F1E0DF011D923C
:1046E0008A95E9F70E94371790934D0180934C010A
:1046F000F80180818F5F808382E080937B01E0916D
:10470000A307F0E0EE5AFE4F8081833608F083E67F
:1047100080830E9437176C0186E0E2EEF1E0DE0153
:10472000569601900D928A95E1F7AE88BF88E88C85
:10473000F98C0A8D1B8D4091BB0741956091BD0797
:104740006195CE0101960E94C61A1B861A861D86A7
:104750001C8680E0682F20E03B8540E05D857EE0A0
:10476000CE0101960E94F209288B398B4A8B5B8B14
:104770006C8B7D8B688979896A0D7B1D2A893B89C1
:104780002E0D3F1D8C899D89800F911F462F7A83A6
:104790006983622F3C832B839E838D8390E1E92E76
:1047A00004E619E196015A817C819E810E94FB17E3
:1047B0000E94061AEE96E2E1DCC70E94070B8823EE
:1047C00009F49DCF8091BC079091BD07F394D80167
:1047D000FC9224E020937B0190934D0180934C0147
:1047E0001092E101809171008D7F80937100109291
:1047F000800380EB99E090937F0380937E039093F6
:104800007C0380937B0384EB90E09093B1098093C9
:10481000B00984E690E09093B3098093B2092CE24A
:1048200031E03093B5092093B4099093B709809390
:10483000B60980E090E89093B9098093B8093FCF1A
:10484000AAE0B0E0E5E2F4E278C7D62E28E0829F45
:104850003001112420EF222E23E0322E412C512C46
:10486000230138EA832E33E0932EA12CB12C53017F
:104870002FEF3FEF40E550E0C301B4010E94400D2F
:1048800030E020E040E450E0C301B4010E94400D5C
:1048900038E4398781E08A879A85D91608F441C0BF
:1048A00089850E94CD0718E4282FA103C001112497
:1048B000892F990F990B9C0128553C4F3A832983E6
:1048C000898580540E94CD07382FB103C00111247F
:1048D0009301290F311D97FD3A953C832B8388EA7C
:1048E000882E83E0982E530189819A819E838D833F
:1048F00038872F8394E0C92EED80FE800F811885C4
:10490000A2019101C301B4010E948F0F29803A8056
:104910004B805C809A859F5F9A872985285F2987CD
:10492000BBCF2A96E2E125C76F927F928F92CF92FA
:10493000DF92EF92FF920F931F93CF93DF93F82EA6
:10494000C0917701D0917801C111D1C0D13009F067
:10495000CEC00E9443198091A30790E0FC01EE5A5B
:10496000FE4F2081FC01E751FE4F328D231778F571
:10497000228F21E0E09064016E2D6150770B861745
:10498000970709F0B2C08091150290911602019626
:104990009093160280931502A2E5B1E051EFC52E67
:1049A00051E0D52EB6018D0180E030E020E050E0EE
:1049B00040E0E81671F0F80191918F01490F511D07
:1049C000FB019191BF01290F311D8F5FF2CF20E0D4
:1049D000D1CF4217530790F490E0891731F02D9111
:1049E000F60121936F019F5FF8CF82E1E2E5F1E0EC
:1049F000A1EFB1E001900D928A95E1F70E94DC07EA
:104A00009093280280932702A9EEB1E0E3E9F7E052
:104A10009D91849198136BC0319661E0A13FB607D8
:104A2000B9F78091E801D82ED694D694E82EE29476
:104A3000EE0CEE0C30ECE32290E080E00E942E19A8
:104A40000E948F18612C40E1742E812C10E000E050
:104A5000882DB3010E94A91860E071E08EEC97E008
:104A60000E9466180E948F18D0120BC0AE2DB0E0C5
:104A7000A253B84F80E4E9EEF1E001900D928A95DF
:104A8000E1F7C8010E940C190E948F180F5F1F4F99
:104A90007FEF771A870A00311105D1F680E190E0A7
:104AA0000E942E190E948F1800E110E0C12CD12C19
:104AB000E12C8E2DB6010E94A91860E071E08EEC09
:104AC00097E00E9466180E948F18C8010E940C1976
:104AD0000E948F188FEFD81AE80A0F5F1F4FC1147A
:104AE000E0E1DE06E10429F702C0211187CF0E9430
:104AF000510840E060E080E00E945E0E40E069E026
:104B000084E00E945E0ED03130F4DF5FD0937801F4
:104B10001092E10117C08F2D8C70D1F38091E101CB
:104B2000803281F4C11141C0F2FC3FC08091A307E3
:104B3000209164012150330B82171306B1F18F5F6E
:104B40000E945B0B6091E101C0E0F3FC05C0C091E5
:104B5000E101F2FEC0E060E08091770181110CC0BC
:104B600085E16EDEEE24E3940FE021E04EE662E0A4
:104B700081EC96E00E944A0A6C2F8DE261DEEE2401
:104B8000E3940FE021E04EE665E080ED96E00E94C0
:104B90004A0ADF91CF911F910F91FF90EF90DF9024
:104BA000CF908F907F906F9008958C2F90E0959587
:104BB0008795809377010E94CE18C4CFEF92FF9221
:104BC0000F931F93CF93DF93809178018830A0F5E6
:104BD0008F5F809378010E94AB10E12C0DE422E0FE
:104BE00042E361E08DE495E00E944A0A0DE224E090
:104BF00042E463E089E994E00E944A0A809132012C
:104C00000FE6C1E4813031F004E6CCE4823011F4E7
:104C10000AE6C6E4DAE08D9FD02D112484E2F82E56
:104C2000FD0E1CE11D0FF11608F440C0612F8C2F02
:104C30000E94D40D1F5FF7CF80913201C09187038E
:104C400063FF18C0823021F489E080937B01C3CFD9
:104C5000809377011092E1018AE080937B0182E0EA
:104C600090E0E9D4C81709F4B6CF6C2F82E090E049
:104C7000EAD4B1CF62FF08C0CC2319F00E94D80655
:104C8000AACF0E94DD06A7CF67FF08C0882321F0C6
:104C90008150809332019FCF82E0FBCF64FF9BCF96
:104CA000823011F08F5FF5CF80E0F3CFCF5F0C172C
:104CB00008F0B7CF8091870309E0811101C004E0BB
:104CC000E12C21E047E767E080E994E00E944A0A8E
:104CD000CDB7DEB7E6E059C51F920F920FB60F921F
:104CE00011248F939F938091E1009091E100937F35
:104CF0009093E10083FF0FC01092E90091E0909340
:104D0000EB001092EC0092E39093ED001092B90743
:104D100098E09093F00082FF22C093E09093E90026
:104D20009091F200992319F09AE39093E800909102
:104D3000AA07992341F09091AA0791509093AA074E
:104D4000911101C05D9A9091B807992341F090911B
:104D5000B80791509093B807911101C0289A84FF29
:104D600018C08091E2008E7E81608093E200809185
:104D7000E1008F7E8093E1008091AB078E7E8061A1
:104D80008093AB079F918F910F900FBE0F901F9054
:104D9000189580FFF7CF8091E2008E7E806180932E
:104DA000E2008091E1008E7E8093E1008091AB076C
:104DB0008E7E8160E5CF1F920F920FB60F92112465
:104DC000CF92DF92EF92FF920F931F932F933F9317
:104DD0004F935F936F937F938F939F93AF93BF9303
:104DE000EF93FF93CF93DF93CDB7DEB76C97DEBF22
:104DF000CDBF1092E9008091E80083FF25C068E0F4
:104E0000CE0145960E94C30682EF8093E8008D890B
:104E100087FF39C09091E80090FFFCCF982F9076E3
:104E200009F034C19E894F89588D2F89F88C9111D2
:104E300031C0803861F58091A9078093F10010920C
:104E4000F1008EEF8093E8006C960FB6F894DEBF09
:104E50000FBECDBFDF91CF91FF91EF91BF91AF9189
:104E60009F918F917F916F915F914F913F912F9182
:104E70001F910F91FF90EF90DF90CF900F900FBE9A
:104E80000F901F9018959EEF9093E800C7CF109257
:104E9000F100D5CF913059F48111D3CF4130510574
:104EA00081F68091A9078D7F8093A907CACF93309F
:104EB00049F48111C6CF4130510519F68091A907F7
:104EC0008260F2CF953041F48091E80080FFFCCF02
:104ED00020682093E300B5CF963009F0A9C00B8D70
:104EE0001C8D22E01092E9001092A7071092A607ED
:104EF000F2122EC01092A5071092A4070E949706E6
:104F00001F8299E09983FA8291E09E8390EA9887C4
:104F10009AEF99872091A6073091A707275F3F4F07
:104F20003C832B838D831092E9001092A707109287
:104F3000A6071093A5070093A40749E050E0BE011F
:104F40006F5F7F4F80E00E9476060E94970679CFC0
:104F50001093A5070093A4070E941905DC0112967F
:104F60000D911C910115110509F451C1D801ED9164
:104F7000FC910480F581E02DBE016B5E7F4FC8017E
:104F80000995009709F03EC1F80100851185EACF27
:104F9000F3E0FF120EC08F89882309F440C08230ED
:104FA00061F440E867E08FEC98E00E9449068111C7
:104FB00048CF81E28093EB0047CF813029F440E86D
:104FC0006BE083EC98E0F1CF833099F70E941905EC
:104FD000DC011296ED90FC908E010F5F1F4F68016F
:104FE000E114F10479F0D701ED91FC910680F7818D
:104FF000E02DB801C7010995080F111DF701E084E4
:10500000F184EECFD8011C92F60101900020E9F75F
:105010003197BF016C197D0940E0C601C6CF6DEA2A
:1050200078E0FB01449150E080E80E94760609CFC9
:10503000973009F4BECF983021F481E08093F100DD
:1050400000CF993009F0FDCE837009F0B2CFE3E1D3
:10505000F1E081E031E096E32191222371F0809329
:10506000E9003093EB00DF0111972C912093EC00C5
:105070009093ED008F5F873079F78EE78093EA0099
:105080001092EA008F898093B907DBCE8B8D9C8DBF
:105090001092E9001092A7071092A6079093A50717
:1050A0008093A407898D811192C08E899D89913A40
:1050B00049F4813209F07DCF47E050E064E071E0CF
:1050C00080E0B3CF913209F074CF833269F48F89D5
:1050D000988DB0E0A0E08093000190930101A0932F
:1050E0000201B0930301ADCE803269F48091E800F3
:1050F00082FFFCCF67E084E091E00E94C3068BEF63
:105100008093E8009ECE823209F09BCE8F898093F7
:105110000B01EEEFFFE7859194918B3F9C4D51F190
:10512000E0E0F8E08091040190910501A091060172
:10513000B0910701803B9440A105B105F1F4809145
:105140000B0180FD1AC0EE3F8AE0F80789F587E77A
:1051500097E791838083809160008093A80788E11E
:105160009BE00FB6F894A895809360000FBE9093D3
:10517000600067CEEEEFFAE0D5CF8081918187376E
:10518000974709F05ECEA895809160008861809372
:1051900060008091A80780936000EE3F2AE0F2074C
:1051A00089F08091FE0A9091FF0A9183808349CE15
:1051B000808191818737980751F29093FF0A8093FD
:1051C000FE0AC5CF1092FF0A1092FE0A3ACE0E9444
:1051D0001905DC0112960D911C910115110509F4B8
:1051E000E8CED801ED91FC910190F081E02DBE0157
:1051F0006B5E7F4FC8010995811123CEF8010085B0
:105200001185EBCF181619060CF41BCED2CEF1E0A7
:10521000FF12BECE61EB78E004CF1F920F920FB663
:105220000F9211242F933F934F935F936F937F932C
:105230008F939F93AF93BF93EF93FF9380918303DB
:1052400090918403A0918503B09186030097A105F6
:10525000B10539F120918203211105C0369A2091C0
:1052600081032111379A0197A109B109B7FD08C03F
:105270008093830390938403A0938503B093860364
:10528000FF91EF91BF91AF919F918F917F916F911E
:105290005F914F913F912F910F900FBE0F901F90F4
:1052A00018950E94F706ECCF0F920FB68F939F933D
:1052B000EF93FF9380912D018D5F8D3708F08D570F
:1052C00080932D01EAE8F3E080818E4F8083918105
:1052D0009F4F918382818F4F828383818F4F8383FE
:1052E000EEE2F1E080818F5F808381818F4F818347
:1052F00082818F4F828383818F4F83838FB18F60B1
:1053000066991C9B88278F3681F480912C01981B0D
:10531000963068F0E0E0F8E087E78083818388E1F9
:1053200080936000F0936000FFCF90932C01FF9179
:10533000EF919F918F910FBE0F901895E0E6F9E0E5
:105340001382128288EE93E0A0E0B0E0848395831C
:10535000A683B7838DE191E0918380838FEF9FEFE8
:105360009587848786E994E09093BF098093BE096E
:1053700080E090E89093BD098093BC0946983E9ADE
:1053800047983F9A0895789483E084BD83E085BD73
:1053900081E080936E00E1E8F0E083E08083E0E864
:1053A00081E08083E1E983E08083E0E981E080833C
:1053B000E1EC87E08083E3EC81E08083E0EC82E055
:1053C0008083E2EC81E08083EAE787E08083806885
:1053D00080831092B9071092A9071092AB078091B1
:1053E000D70081608093D70080EA8093D80089B588
:1053F000806189BD89B5826089BD09B400FEFDCF99
:105400000E9499048091D8008F7C80618093D8009D
:105410008091E000807F8093E0008091E1008E7EAB
:105420008093E1008DE08093E200559A209A81EC10
:1054300080937C0085B1806F85B984B1877E84B903
:1054400084B1876E84B95E9A5F988AB1806D8AB99B
:10545000769A6E9881B3806F81BB899880B38D7086
:1054600080BB80E58CBD81E08DBD0E94C4045F9A45
:105470000E94C4045E985C98EEE5F8E08BE698E044
:1054800024912EBD00000DB407FEFDCF31968E177E
:105490009F07B1F75C9A81E8809364008091650072
:1054A0008160809365000E94D00687FF16C05C98DB
:1054B00085EA8EBD00000DB407FEFDCF5C9A2E98E4
:1054C0002F982D982E9880916400806280936400BC
:1054D00081E083BF889513BEFCCF82E090E0ABD023
:1054E000882309F44BC00E94DD065E9AE4E1F0E0F7
:1054F000859194918831954909F043C0E6E1F0E047
:105500008491E7E1F0E0E491F82FF0938903E093D0
:105510008803E8E1F0E0859194918831954909F09C
:1055200037C0EAE1F0E08491EBE1F0E0E491F82F9C
:10553000F0935F09E0935E098BEA0E9408190E94CC
:1055400001198FB7F894C0908A03D0908B03E09034
:105550008C03F0908D038FBFAA24A394B12C03EA8F
:1055600013E0C0E0D4E08091600083FF18C0F8949D
:1055700087E78093000880930108FFCF0E94D80638
:10558000B4CF87E99FEF9093890380938803C1CFBD
:1055900080EE9FEF90935F0980935E09CDCF2FB788
:1055A000F89480918A0390918B03A0918C03B09121
:1055B0008D032FBF8C19813230F4803281F3A3BE6A
:1055C000889513BEECCF8FB7F894C0908A03D09023
:1055D0008B03E0908C03F0908D038FBF0E94EF0A45
:1055E0008091A3070E948D0B0E94B518D8019E01DF
:1055F000E3EAF3E097E00DB407FEFDCF5E9800808C
:105600008EB50EBCB110012C0192215030402AF011
:1056100000008D93E33AF90790F3E2F35E9A599A0A
:105620008DB585E1E3E1F7E0AEE8B3E001900D92DE
:105630008A95E1F798CFF999FECF92BD81BDF89A8E
:10564000992780B50895262FF999FECF1FBA92BDEC
:1056500081BD20BD0FB6F894FA9AF99A0FBE019653
:105660000895052E97FB16F400940FD057FD05D032
:105670001ED007FC02D046F408C0509540953095E6
:1056800021953F4F4F4F5F4F0895909580957095AE
:1056900061957F4F8F4F9F4F08952BD0A59F900D01
:1056A000B49F900DA49F800D911D11240895A1E237
:1056B0001A2EAA1BBB1BFD010DC0AA1FBB1FEE1F8C
:1056C000FF1FA217B307E407F50720F0A21BB30BD7
:1056D000E40BF50B661F771F881F991F1A9469F753
:1056E00060957095809590959B01AC01BD01CF01AF
:1056F0000895A29FB001B39FC001A39F700D811DAB
:105700001124911DB29F700D811D1124911D0895CA
:10571000DB01582FEEDF529F800DA49F800D1124D6
:105720000895E7DF332312F48A1B9B0B01C0E1DFEE
:10573000B7FF0895821B930B08952F923F924F92CB
:105740005F926F927F928F929F92AF92BF92CF9211
:10575000DF92EF92FF920F931F93CF93DF93CDB71A
:10576000DEB7CA1BDB0B0FB6F894DEBF0FBECDBF92
:1057700009942A88398848885F846E847D848C8463
:105780009B84AA84B984C884DF80EE80FD800C816C
:105790001B81AA81B981CE0FD11D0FB6F894DEBF4F
:1057A0000FBECDBFED010895EE0FFF1F0590F491E0
:1057B000E02D0994DC0101C06D9341505040E0F7A9
:0657C0000895F894FFCFEC
:1057C600FFFFFFFF00E1000000000000030D800660
:1057D60085F200C18081000000000000009E052DBA
:0C57E60005C005B5050106C305E105007E
:00000001FF
